{
  "contractName": "CryptoTweets",
  "abi": [
    {
      "inputs": [],
      "stateMutability": "nonpayable",
      "type": "constructor"
    },
    {
      "anonymous": false,
      "inputs": [
        {
          "indexed": true,
          "internalType": "address",
          "name": "owner",
          "type": "address"
        },
        {
          "indexed": true,
          "internalType": "address",
          "name": "approved",
          "type": "address"
        },
        {
          "indexed": true,
          "internalType": "uint256",
          "name": "tokenId",
          "type": "uint256"
        }
      ],
      "name": "Approval",
      "type": "event"
    },
    {
      "anonymous": false,
      "inputs": [
        {
          "indexed": true,
          "internalType": "address",
          "name": "owner",
          "type": "address"
        },
        {
          "indexed": true,
          "internalType": "address",
          "name": "operator",
          "type": "address"
        },
        {
          "indexed": false,
          "internalType": "bool",
          "name": "approved",
          "type": "bool"
        }
      ],
      "name": "ApprovalForAll",
      "type": "event"
    },
    {
      "anonymous": false,
      "inputs": [
        {
          "indexed": true,
          "internalType": "uint256",
          "name": "tokenId",
          "type": "uint256"
        },
        {
          "indexed": false,
          "internalType": "bool",
          "name": "filetype",
          "type": "bool"
        },
        {
          "indexed": false,
          "internalType": "string",
          "name": "tokenName",
          "type": "string"
        },
        {
          "indexed": false,
          "internalType": "string",
          "name": "tokenSymbol",
          "type": "string"
        },
        {
          "indexed": false,
          "internalType": "string",
          "name": "tokenDesc",
          "type": "string"
        },
        {
          "indexed": false,
          "internalType": "uint256",
          "name": "price",
          "type": "uint256"
        },
        {
          "indexed": false,
          "internalType": "string",
          "name": "tokenURI",
          "type": "string"
        },
        {
          "indexed": false,
          "internalType": "bool",
          "name": "sold",
          "type": "bool"
        },
        {
          "indexed": true,
          "internalType": "uint256",
          "name": "saleOption",
          "type": "uint256"
        },
        {
          "indexed": false,
          "internalType": "address payable",
          "name": "mintedBy",
          "type": "address"
        },
        {
          "indexed": false,
          "internalType": "address payable",
          "name": "currentOwner",
          "type": "address"
        },
        {
          "indexed": false,
          "internalType": "address payable",
          "name": "previousOwner",
          "type": "address"
        },
        {
          "indexed": true,
          "internalType": "uint256",
          "name": "numberOfTransfers",
          "type": "uint256"
        }
      ],
      "name": "CryptoTweetCreated",
      "type": "event"
    },
    {
      "anonymous": false,
      "inputs": [
        {
          "indexed": true,
          "internalType": "address",
          "name": "from",
          "type": "address"
        },
        {
          "indexed": true,
          "internalType": "address",
          "name": "to",
          "type": "address"
        },
        {
          "indexed": true,
          "internalType": "uint256",
          "name": "tokenId",
          "type": "uint256"
        }
      ],
      "name": "Transfer",
      "type": "event"
    },
    {
      "inputs": [],
      "name": "CryptoTweetCounter",
      "outputs": [
        {
          "internalType": "uint256",
          "name": "_value",
          "type": "uint256"
        }
      ],
      "stateMutability": "view",
      "type": "function",
      "constant": true
    },
    {
      "inputs": [
        {
          "internalType": "address",
          "name": "to",
          "type": "address"
        },
        {
          "internalType": "uint256",
          "name": "tokenId",
          "type": "uint256"
        }
      ],
      "name": "approve",
      "outputs": [],
      "stateMutability": "nonpayable",
      "type": "function"
    },
    {
      "inputs": [
        {
          "internalType": "address",
          "name": "owner",
          "type": "address"
        }
      ],
      "name": "balanceOf",
      "outputs": [
        {
          "internalType": "uint256",
          "name": "",
          "type": "uint256"
        }
      ],
      "stateMutability": "view",
      "type": "function",
      "constant": true
    },
    {
      "inputs": [
        {
          "internalType": "uint256",
          "name": "tokenId",
          "type": "uint256"
        }
      ],
      "name": "getApproved",
      "outputs": [
        {
          "internalType": "address",
          "name": "",
          "type": "address"
        }
      ],
      "stateMutability": "view",
      "type": "function",
      "constant": true
    },
    {
      "inputs": [
        {
          "internalType": "address",
          "name": "owner",
          "type": "address"
        },
        {
          "internalType": "address",
          "name": "operator",
          "type": "address"
        }
      ],
      "name": "isApprovedForAll",
      "outputs": [
        {
          "internalType": "bool",
          "name": "",
          "type": "bool"
        }
      ],
      "stateMutability": "view",
      "type": "function",
      "constant": true
    },
    {
      "inputs": [],
      "name": "name",
      "outputs": [
        {
          "internalType": "string",
          "name": "",
          "type": "string"
        }
      ],
      "stateMutability": "view",
      "type": "function",
      "constant": true
    },
    {
      "inputs": [
        {
          "internalType": "uint256",
          "name": "tokenId",
          "type": "uint256"
        }
      ],
      "name": "ownerOf",
      "outputs": [
        {
          "internalType": "address",
          "name": "",
          "type": "address"
        }
      ],
      "stateMutability": "view",
      "type": "function",
      "constant": true
    },
    {
      "inputs": [
        {
          "internalType": "address",
          "name": "from",
          "type": "address"
        },
        {
          "internalType": "address",
          "name": "to",
          "type": "address"
        },
        {
          "internalType": "uint256",
          "name": "tokenId",
          "type": "uint256"
        }
      ],
      "name": "safeTransferFrom",
      "outputs": [],
      "stateMutability": "nonpayable",
      "type": "function"
    },
    {
      "inputs": [
        {
          "internalType": "address",
          "name": "from",
          "type": "address"
        },
        {
          "internalType": "address",
          "name": "to",
          "type": "address"
        },
        {
          "internalType": "uint256",
          "name": "tokenId",
          "type": "uint256"
        },
        {
          "internalType": "bytes",
          "name": "_data",
          "type": "bytes"
        }
      ],
      "name": "safeTransferFrom",
      "outputs": [],
      "stateMutability": "nonpayable",
      "type": "function"
    },
    {
      "inputs": [
        {
          "internalType": "address",
          "name": "operator",
          "type": "address"
        },
        {
          "internalType": "bool",
          "name": "approved",
          "type": "bool"
        }
      ],
      "name": "setApprovalForAll",
      "outputs": [],
      "stateMutability": "nonpayable",
      "type": "function"
    },
    {
      "inputs": [
        {
          "internalType": "bytes4",
          "name": "interfaceId",
          "type": "bytes4"
        }
      ],
      "name": "supportsInterface",
      "outputs": [
        {
          "internalType": "bool",
          "name": "",
          "type": "bool"
        }
      ],
      "stateMutability": "view",
      "type": "function",
      "constant": true
    },
    {
      "inputs": [],
      "name": "symbol",
      "outputs": [
        {
          "internalType": "string",
          "name": "",
          "type": "string"
        }
      ],
      "stateMutability": "view",
      "type": "function",
      "constant": true
    },
    {
      "inputs": [
        {
          "internalType": "string",
          "name": "",
          "type": "string"
        }
      ],
      "name": "tokenNameExists",
      "outputs": [
        {
          "internalType": "bool",
          "name": "",
          "type": "bool"
        }
      ],
      "stateMutability": "view",
      "type": "function",
      "constant": true
    },
    {
      "inputs": [
        {
          "internalType": "uint256",
          "name": "tokenId",
          "type": "uint256"
        }
      ],
      "name": "tokenURI",
      "outputs": [
        {
          "internalType": "string",
          "name": "",
          "type": "string"
        }
      ],
      "stateMutability": "view",
      "type": "function",
      "constant": true
    },
    {
      "inputs": [
        {
          "internalType": "string",
          "name": "",
          "type": "string"
        }
      ],
      "name": "tokenURIExists",
      "outputs": [
        {
          "internalType": "bool",
          "name": "",
          "type": "bool"
        }
      ],
      "stateMutability": "view",
      "type": "function",
      "constant": true
    },
    {
      "inputs": [
        {
          "internalType": "address",
          "name": "from",
          "type": "address"
        },
        {
          "internalType": "address",
          "name": "to",
          "type": "address"
        },
        {
          "internalType": "uint256",
          "name": "tokenId",
          "type": "uint256"
        }
      ],
      "name": "transferFrom",
      "outputs": [],
      "stateMutability": "nonpayable",
      "type": "function"
    },
    {
      "inputs": [
        {
          "internalType": "string",
          "name": "_name",
          "type": "string"
        },
        {
          "internalType": "bool",
          "name": "_filetype",
          "type": "bool"
        },
        {
          "internalType": "string",
          "name": "_symbol",
          "type": "string"
        },
        {
          "internalType": "string",
          "name": "_desc",
          "type": "string"
        },
        {
          "internalType": "uint256",
          "name": "_price",
          "type": "uint256"
        },
        {
          "internalType": "string",
          "name": "_tokenURI",
          "type": "string"
        },
        {
          "internalType": "uint256",
          "name": "_option",
          "type": "uint256"
        }
      ],
      "name": "mintCryptoTweet",
      "outputs": [],
      "stateMutability": "nonpayable",
      "type": "function"
    },
    {
      "inputs": [],
      "name": "fetchCryptoTweets",
      "outputs": [
        {
          "components": [
            {
              "internalType": "uint256",
              "name": "tokenId",
              "type": "uint256"
            },
            {
              "internalType": "bool",
              "name": "filetype",
              "type": "bool"
            },
            {
              "internalType": "string",
              "name": "tokenName",
              "type": "string"
            },
            {
              "internalType": "string",
              "name": "tokenSymbol",
              "type": "string"
            },
            {
              "internalType": "string",
              "name": "tokenDesc",
              "type": "string"
            },
            {
              "internalType": "uint256",
              "name": "price",
              "type": "uint256"
            },
            {
              "internalType": "string",
              "name": "tokenURI",
              "type": "string"
            },
            {
              "internalType": "bool",
              "name": "sold",
              "type": "bool"
            },
            {
              "internalType": "uint256",
              "name": "saleOption",
              "type": "uint256"
            },
            {
              "internalType": "address payable",
              "name": "mintedBy",
              "type": "address"
            },
            {
              "internalType": "address payable",
              "name": "currentOwner",
              "type": "address"
            },
            {
              "internalType": "address payable",
              "name": "previousOwner",
              "type": "address"
            },
            {
              "internalType": "uint256",
              "name": "numberOfTransfers",
              "type": "uint256"
            }
          ],
          "internalType": "struct CryptoTweets.CryptoTweet[]",
          "name": "",
          "type": "tuple[]"
        }
      ],
      "stateMutability": "view",
      "type": "function",
      "constant": true
    },
    {
      "inputs": [],
      "name": "fetchMyNFTs",
      "outputs": [
        {
          "components": [
            {
              "internalType": "uint256",
              "name": "tokenId",
              "type": "uint256"
            },
            {
              "internalType": "bool",
              "name": "filetype",
              "type": "bool"
            },
            {
              "internalType": "string",
              "name": "tokenName",
              "type": "string"
            },
            {
              "internalType": "string",
              "name": "tokenSymbol",
              "type": "string"
            },
            {
              "internalType": "string",
              "name": "tokenDesc",
              "type": "string"
            },
            {
              "internalType": "uint256",
              "name": "price",
              "type": "uint256"
            },
            {
              "internalType": "string",
              "name": "tokenURI",
              "type": "string"
            },
            {
              "internalType": "bool",
              "name": "sold",
              "type": "bool"
            },
            {
              "internalType": "uint256",
              "name": "saleOption",
              "type": "uint256"
            },
            {
              "internalType": "address payable",
              "name": "mintedBy",
              "type": "address"
            },
            {
              "internalType": "address payable",
              "name": "currentOwner",
              "type": "address"
            },
            {
              "internalType": "address payable",
              "name": "previousOwner",
              "type": "address"
            },
            {
              "internalType": "uint256",
              "name": "numberOfTransfers",
              "type": "uint256"
            }
          ],
          "internalType": "struct CryptoTweets.CryptoTweet[]",
          "name": "",
          "type": "tuple[]"
        }
      ],
      "stateMutability": "view",
      "type": "function",
      "constant": true
    },
    {
      "inputs": [
        {
          "internalType": "uint256",
          "name": "_tokenId",
          "type": "uint256"
        }
      ],
      "name": "getTokenOwner",
      "outputs": [
        {
          "internalType": "address",
          "name": "",
          "type": "address"
        }
      ],
      "stateMutability": "view",
      "type": "function",
      "constant": true
    },
    {
      "inputs": [
        {
          "internalType": "uint256",
          "name": "_tokenId",
          "type": "uint256"
        }
      ],
      "name": "getTokenMetaData",
      "outputs": [
        {
          "internalType": "string",
          "name": "",
          "type": "string"
        }
      ],
      "stateMutability": "view",
      "type": "function",
      "constant": true
    },
    {
      "inputs": [
        {
          "internalType": "address",
          "name": "_owner",
          "type": "address"
        }
      ],
      "name": "getTotalNumberOfTokensOwnedByAnAddress",
      "outputs": [
        {
          "internalType": "uint256",
          "name": "",
          "type": "uint256"
        }
      ],
      "stateMutability": "view",
      "type": "function",
      "constant": true
    },
    {
      "inputs": [
        {
          "internalType": "uint256",
          "name": "_tokenId",
          "type": "uint256"
        }
      ],
      "name": "getTokenExists",
      "outputs": [
        {
          "internalType": "bool",
          "name": "",
          "type": "bool"
        }
      ],
      "stateMutability": "view",
      "type": "function",
      "constant": true
    },
    {
      "inputs": [
        {
          "internalType": "uint256",
          "name": "_tokenId",
          "type": "uint256"
        }
      ],
      "name": "buyToken",
      "outputs": [],
      "stateMutability": "payable",
      "type": "function",
      "payable": true
    },
    {
      "inputs": [
        {
          "internalType": "uint256",
          "name": "_tokenId",
          "type": "uint256"
        },
        {
          "internalType": "uint256",
          "name": "_newPrice",
          "type": "uint256"
        }
      ],
      "name": "changeTokenPrice",
      "outputs": [],
      "stateMutability": "nonpayable",
      "type": "function"
    },
    {
      "inputs": [
        {
          "internalType": "uint256",
          "name": "_tokenId",
          "type": "uint256"
        }
      ],
      "name": "toggleForSale",
      "outputs": [],
      "stateMutability": "nonpayable",
      "type": "function"
    }
  ],
  "bytecode": "0x60806040523480156200001157600080fd5b506040518060400160405280601881526020017f43727970746f2054776565747320436f6c6c656374696f6e00000000000000008152506040518060400160405280600281526020017f4354000000000000000000000000000000000000000000000000000000000000815250816000908051906020019062000096929190620000c0565b508060019080519060200190620000af929190620000c0565b5050506001600781905550620001d5565b828054620000ce9062000170565b90600052602060002090601f016020900481019282620000f257600085556200013e565b82601f106200010d57805160ff19168380011785556200013e565b828001600101855582156200013e579182015b828111156200013d57825182559160200191906001019062000120565b5b5090506200014d919062000151565b5090565b5b808211156200016c57600081600090555060010162000152565b5090565b600060028204905060018216806200018957607f821691505b60208210811415620001a0576200019f620001a6565b5b50919050565b7f4e487b7100000000000000000000000000000000000000000000000000000000600052602260045260246000fd5b615ba480620001e56000396000f3fe60806040526004361061019e576000357c01000000000000000000000000000000000000000000000000000000009004806367c623cf116100ee578063a46b1fac116100a7578063c87b56dd11610081578063c87b56dd146105ec578063cc5479fd14610629578063e985e9c514610652578063f96cde591461068f5761019e565b8063a46b1fac14610549578063a5cd761f14610586578063b88d4fde146105c35761019e565b806367c623cf1461042757806370a082311461046457806395d89b41146104a1578063a139cf2a146104cc578063a22cb465146104f7578063a32018b9146105205761019e565b806323b872dd1161015b5780634390285011610135578063439028501461034757806343d32ae71461038457806362e8e8ac146103c15780636352211e146103ea5761019e565b806323b872dd146102d95780632d296bf11461030257806342842e0e1461031e5761019e565b806301ffc9a7146101a357806306fdde03146101e0578063081812fc1461020b578063095ea7b314610248578063142687f314610271578063202e3740146102ae575b600080fd5b3480156101af57600080fd5b506101ca60048036038101906101c591906145b8565b6106ba565b6040516101d79190615328565b60405180910390f35b3480156101ec57600080fd5b506101f561079c565b60405161020291906153fb565b60405180910390f35b34801561021757600080fd5b50610232600480360381019061022d9190614749565b61082e565b60405161023f919061529f565b60405180910390f35b34801561025457600080fd5b5061026f600480360381019061026a919061457c565b6108b3565b005b34801561027d57600080fd5b5061029860048036038101906102939190614749565b6109cb565b6040516102a59190615328565b60405180910390f35b3480156102ba57600080fd5b506102c36109e2565b6040516102d09190615306565b60405180910390f35b3480156102e557600080fd5b5061030060048036038101906102fb9190614476565b610fea565b005b61031c60048036038101906103179190614749565b61104a565b005b34801561032a57600080fd5b5061034560048036038101906103409190614476565b611890565b005b34801561035357600080fd5b5061036e60048036038101906103699190614411565b6118b0565b60405161037b91906156dd565b60405180910390f35b34801561039057600080fd5b506103ab60048036038101906103a6919061460a565b6118c7565b6040516103b89190615328565b60405180910390f35b3480156103cd57600080fd5b506103e860048036038101906103e39190614772565b6118fd565b005b3480156103f657600080fd5b50610411600480360381019061040c9190614749565b611f36565b60405161041e919061529f565b60405180910390f35b34801561043357600080fd5b5061044e60048036038101906104499190614749565b611fe8565b60405161045b91906153fb565b60405180910390f35b34801561047057600080fd5b5061048b60048036038101906104869190614411565b612000565b60405161049891906156dd565b60405180910390f35b3480156104ad57600080fd5b506104b66120b8565b6040516104c391906153fb565b60405180910390f35b3480156104d857600080fd5b506104e161214a565b6040516104ee9190615306565b60405180910390f35b34801561050357600080fd5b5061051e60048036038101906105199190614540565b612622565b005b34801561052c57600080fd5b5061054760048036038101906105429190614749565b6127a3565b005b34801561055557600080fd5b50610570600480360381019061056b919061460a565b612e03565b60405161057d9190615328565b60405180910390f35b34801561059257600080fd5b506105ad60048036038101906105a89190614749565b612e39565b6040516105ba919061529f565b60405180910390f35b3480156105cf57600080fd5b506105ea60048036038101906105e591906144c5565b612e50565b005b3480156105f857600080fd5b50610613600480360381019061060e9190614749565b612eb2565b60405161062091906153fb565b60405180910390f35b34801561063557600080fd5b50610650600480360381019061064b919061464b565b613004565b005b34801561065e57600080fd5b506106796004803603810190610674919061443a565b6134e3565b6040516106869190615328565b60405180910390f35b34801561069b57600080fd5b506106a4613577565b6040516106b191906156dd565b60405180910390f35b60007f80ac58cd000000000000000000000000000000000000000000000000000000007bffffffffffffffffffffffffffffffffffffffffffffffffffffffff1916827bffffffffffffffffffffffffffffffffffffffffffffffffffffffff1916148061078557507f5b5e139f000000000000000000000000000000000000000000000000000000007bffffffffffffffffffffffffffffffffffffffffffffffffffffffff1916827bffffffffffffffffffffffffffffffffffffffffffffffffffffffff1916145b80610795575061079482613583565b5b9050919050565b6060600080546107ab90615999565b80601f01602080910402602001604051908101604052809291908181526020018280546107d790615999565b80156108245780601f106107f957610100808354040283529160200191610824565b820191906000526020600020905b81548152906001019060200180831161080757829003601f168201915b5050505050905090565b6000610839826135ed565b610878576040517f08c379a000000000000000000000000000000000000000000000000000000000815260040161086f906155fd565b60405180910390fd5b6004600083815260200190815260200160002060009054906101000a900473ffffffffffffffffffffffffffffffffffffffff169050919050565b60006108be82611f36565b90508073ffffffffffffffffffffffffffffffffffffffff168373ffffffffffffffffffffffffffffffffffffffff16141561092f576040517f08c379a00000000000000000000000000000000000000000000000000000000081526004016109269061565d565b60405180910390fd5b8073ffffffffffffffffffffffffffffffffffffffff1661094e613659565b73ffffffffffffffffffffffffffffffffffffffff16148061097d575061097c81610977613659565b6134e3565b5b6109bc576040517f08c379a00000000000000000000000000000000000000000000000000000000081526004016109b39061553d565b60405180910390fd5b6109c68383613661565b505050565b6000806109d7836135ed565b905080915050919050565b606060006109f0600861371a565b905060008060005b83811015610a99573373ffffffffffffffffffffffffffffffffffffffff16600a6000600184610a289190615816565b8152602001908152602001600020600a0160009054906101000a900473ffffffffffffffffffffffffffffffffffffffff1673ffffffffffffffffffffffffffffffffffffffff161415610a8657600183610a839190615816565b92505b8080610a91906159cb565b9150506109f8565b5060008267ffffffffffffffff811115610adc577f4e487b7100000000000000000000000000000000000000000000000000000000600052604160045260246000fd5b604051908082528060200260200182016040528015610b1557816020015b610b02614187565b815260200190600190039081610afa5790505b50905060005b84811015610fdf573373ffffffffffffffffffffffffffffffffffffffff16600a6000600184610b4b9190615816565b8152602001908152602001600020600a0160009054906101000a900473ffffffffffffffffffffffffffffffffffffffff1673ffffffffffffffffffffffffffffffffffffffff161415610fcc576000600182610ba89190615816565b90506000600a6000838152602001908152602001600020905080604051806101a0016040529081600082015481526020016001820160009054906101000a900460ff16151515158152602001600282018054610c0390615999565b80601f0160208091040260200160405190810160405280929190818152602001828054610c2f90615999565b8015610c7c5780601f10610c5157610100808354040283529160200191610c7c565b820191906000526020600020905b815481529060010190602001808311610c5f57829003601f168201915b50505050508152602001600382018054610c9590615999565b80601f0160208091040260200160405190810160405280929190818152602001828054610cc190615999565b8015610d0e5780601f10610ce357610100808354040283529160200191610d0e565b820191906000526020600020905b815481529060010190602001808311610cf157829003601f168201915b50505050508152602001600482018054610d2790615999565b80601f0160208091040260200160405190810160405280929190818152602001828054610d5390615999565b8015610da05780601f10610d7557610100808354040283529160200191610da0565b820191906000526020600020905b815481529060010190602001808311610d8357829003601f168201915b5050505050815260200160058201548152602001600682018054610dc390615999565b80601f0160208091040260200160405190810160405280929190818152602001828054610def90615999565b8015610e3c5780601f10610e1157610100808354040283529160200191610e3c565b820191906000526020600020905b815481529060010190602001808311610e1f57829003601f168201915b505050505081526020016007820160009054906101000a900460ff16151515158152602001600882015481526020016009820160009054906101000a900473ffffffffffffffffffffffffffffffffffffffff1673ffffffffffffffffffffffffffffffffffffffff1673ffffffffffffffffffffffffffffffffffffffff168152602001600a820160009054906101000a900473ffffffffffffffffffffffffffffffffffffffff1673ffffffffffffffffffffffffffffffffffffffff1673ffffffffffffffffffffffffffffffffffffffff168152602001600b820160009054906101000a900473ffffffffffffffffffffffffffffffffffffffff1673ffffffffffffffffffffffffffffffffffffffff1673ffffffffffffffffffffffffffffffffffffffff168152602001600c82015481525050848681518110610faf577f4e487b7100000000000000000000000000000000000000000000000000000000600052603260045260246000fd5b6020026020010181905250600185610fc79190615816565b945050505b8080610fd7906159cb565b915050610b1b565b508094505050505090565b610ffb610ff5613659565b82613728565b61103a576040517f08c379a00000000000000000000000000000000000000000000000000000000081526004016110319061567d565b60405180910390fd5b611045838383613806565b505050565b600073ffffffffffffffffffffffffffffffffffffffff163373ffffffffffffffffffffffffffffffffffffffff1614156110ba576040517f08c379a00000000000000000000000000000000000000000000000000000000081526004016110b19061549d565b60405180910390fd5b6110c3816135ed565b6110cc57600080fd5b60006110d782611f36565b9050600073ffffffffffffffffffffffffffffffffffffffff168173ffffffffffffffffffffffffffffffffffffffff161415611149576040517f08c379a00000000000000000000000000000000000000000000000000000000081526004016111409061547d565b60405180910390fd5b3373ffffffffffffffffffffffffffffffffffffffff168173ffffffffffffffffffffffffffffffffffffffff1614156111b8576040517f08c379a00000000000000000000000000000000000000000000000000000000081526004016111af9061541d565b60405180910390fd5b6000600a6000848152602001908152602001600020604051806101a0016040529081600082015481526020016001820160009054906101000a900460ff1615151515815260200160028201805461120e90615999565b80601f016020809104026020016040519081016040528092919081815260200182805461123a90615999565b80156112875780601f1061125c57610100808354040283529160200191611287565b820191906000526020600020905b81548152906001019060200180831161126a57829003601f168201915b505050505081526020016003820180546112a090615999565b80601f01602080910402602001604051908101604052809291908181526020018280546112cc90615999565b80156113195780601f106112ee57610100808354040283529160200191611319565b820191906000526020600020905b8154815290600101906020018083116112fc57829003601f168201915b5050505050815260200160048201805461133290615999565b80601f016020809104026020016040519081016040528092919081815260200182805461135e90615999565b80156113ab5780601f10611380576101008083540402835291602001916113ab565b820191906000526020600020905b81548152906001019060200180831161138e57829003601f168201915b50505050508152602001600582015481526020016006820180546113ce90615999565b80601f01602080910402602001604051908101604052809291908181526020018280546113fa90615999565b80156114475780601f1061141c57610100808354040283529160200191611447565b820191906000526020600020905b81548152906001019060200180831161142a57829003601f168201915b505050505081526020016007820160009054906101000a900460ff16151515158152602001600882015481526020016009820160009054906101000a900473ffffffffffffffffffffffffffffffffffffffff1673ffffffffffffffffffffffffffffffffffffffff1673ffffffffffffffffffffffffffffffffffffffff168152602001600a820160009054906101000a900473ffffffffffffffffffffffffffffffffffffffff1673ffffffffffffffffffffffffffffffffffffffff1673ffffffffffffffffffffffffffffffffffffffff168152602001600b820160009054906101000a900473ffffffffffffffffffffffffffffffffffffffff1673ffffffffffffffffffffffffffffffffffffffff1673ffffffffffffffffffffffffffffffffffffffff168152602001600c8201548152505090508060e001516115c7576040517f08c379a00000000000000000000000000000000000000000000000000000000081526004016115be9061545d565b60405180910390fd5b6115d78161014001513385613806565b600081610140015190508073ffffffffffffffffffffffffffffffffffffffff166108fc349081150290604051600060405180830381858888f19350505050158015611627573d6000803e3d6000fd5b5081610140015182610160019073ffffffffffffffffffffffffffffffffffffffff16908173ffffffffffffffffffffffffffffffffffffffff16815250503382610140019073ffffffffffffffffffffffffffffffffffffffff16908173ffffffffffffffffffffffffffffffffffffffff16815250506116a96009613a62565b6116b3600961371a565b8261018001818152505081600a60008681526020019081526020016000206000820151816000015560208201518160010160006101000a81548160ff0219169083151502179055506040820151816002019080519060200190611717929190614235565b506060820151816003019080519060200190611734929190614235565b506080820151816004019080519060200190611751929190614235565b5060a0820151816005015560c0820151816006019080519060200190611778929190614235565b5060e08201518160070160006101000a81548160ff02191690831515021790555061010082015181600801556101208201518160090160006101000a81548173ffffffffffffffffffffffffffffffffffffffff021916908373ffffffffffffffffffffffffffffffffffffffff16021790555061014082015181600a0160006101000a81548173ffffffffffffffffffffffffffffffffffffffff021916908373ffffffffffffffffffffffffffffffffffffffff16021790555061016082015181600b0160006101000a81548173ffffffffffffffffffffffffffffffffffffffff021916908373ffffffffffffffffffffffffffffffffffffffff16021790555061018082015181600c015590505050505050565b6118ab83838360405180602001604052806000815250612e50565b505050565b6000806118bc83612000565b905080915050919050565b600c818051602081018201805184825260208301602085012081835280955050505050506000915054906101000a900460ff1681565b600073ffffffffffffffffffffffffffffffffffffffff163373ffffffffffffffffffffffffffffffffffffffff16141561193757600080fd5b611940826135ed565b61194957600080fd5b600061195483611f36565b90503373ffffffffffffffffffffffffffffffffffffffff168173ffffffffffffffffffffffffffffffffffffffff161461198e57600080fd5b6000600a6000858152602001908152602001600020604051806101a0016040529081600082015481526020016001820160009054906101000a900460ff161515151581526020016002820180546119e490615999565b80601f0160208091040260200160405190810160405280929190818152602001828054611a1090615999565b8015611a5d5780601f10611a3257610100808354040283529160200191611a5d565b820191906000526020600020905b815481529060010190602001808311611a4057829003601f168201915b50505050508152602001600382018054611a7690615999565b80601f0160208091040260200160405190810160405280929190818152602001828054611aa290615999565b8015611aef5780601f10611ac457610100808354040283529160200191611aef565b820191906000526020600020905b815481529060010190602001808311611ad257829003601f168201915b50505050508152602001600482018054611b0890615999565b80601f0160208091040260200160405190810160405280929190818152602001828054611b3490615999565b8015611b815780601f10611b5657610100808354040283529160200191611b81565b820191906000526020600020905b815481529060010190602001808311611b6457829003601f168201915b5050505050815260200160058201548152602001600682018054611ba490615999565b80601f0160208091040260200160405190810160405280929190818152602001828054611bd090615999565b8015611c1d5780601f10611bf257610100808354040283529160200191611c1d565b820191906000526020600020905b815481529060010190602001808311611c0057829003601f168201915b505050505081526020016007820160009054906101000a900460ff16151515158152602001600882015481526020016009820160009054906101000a900473ffffffffffffffffffffffffffffffffffffffff1673ffffffffffffffffffffffffffffffffffffffff1673ffffffffffffffffffffffffffffffffffffffff168152602001600a820160009054906101000a900473ffffffffffffffffffffffffffffffffffffffff1673ffffffffffffffffffffffffffffffffffffffff1673ffffffffffffffffffffffffffffffffffffffff168152602001600b820160009054906101000a900473ffffffffffffffffffffffffffffffffffffffff1673ffffffffffffffffffffffffffffffffffffffff1673ffffffffffffffffffffffffffffffffffffffff168152602001600c820154815250509050828160a001818152505080600a60008681526020019081526020016000206000820151816000015560208201518160010160006101000a81548160ff0219169083151502179055506040820151816002019080519060200190611dbd929190614235565b506060820151816003019080519060200190611dda929190614235565b506080820151816004019080519060200190611df7929190614235565b5060a0820151816005015560c0820151816006019080519060200190611e1e929190614235565b5060e08201518160070160006101000a81548160ff02191690831515021790555061010082015181600801556101208201518160090160006101000a81548173ffffffffffffffffffffffffffffffffffffffff021916908373ffffffffffffffffffffffffffffffffffffffff16021790555061014082015181600a0160006101000a81548173ffffffffffffffffffffffffffffffffffffffff021916908373ffffffffffffffffffffffffffffffffffffffff16021790555061016082015181600b0160006101000a81548173ffffffffffffffffffffffffffffffffffffffff021916908373ffffffffffffffffffffffffffffffffffffffff16021790555061018082015181600c015590505050505050565b6000806002600084815260200190815260200160002060009054906101000a900473ffffffffffffffffffffffffffffffffffffffff169050600073ffffffffffffffffffffffffffffffffffffffff168173ffffffffffffffffffffffffffffffffffffffff161415611fdf576040517f08c379a0000000000000000000000000000000000000000000000000000000008152600401611fd69061557d565b60405180910390fd5b80915050919050565b60606000611ff583612eb2565b905080915050919050565b60008073ffffffffffffffffffffffffffffffffffffffff168273ffffffffffffffffffffffffffffffffffffffff161415612071576040517f08c379a00000000000000000000000000000000000000000000000000000000081526004016120689061555d565b60405180910390fd5b600360008373ffffffffffffffffffffffffffffffffffffffff1673ffffffffffffffffffffffffffffffffffffffff168152602001908152602001600020549050919050565b6060600180546120c790615999565b80601f01602080910402602001604051908101604052809291908181526020018280546120f390615999565b80156121405780601f1061211557610100808354040283529160200191612140565b820191906000526020600020905b81548152906001019060200180831161212357829003601f168201915b5050505050905090565b60606000612158600861371a565b905060008167ffffffffffffffff81111561219c577f4e487b7100000000000000000000000000000000000000000000000000000000600052604160045260246000fd5b6040519080825280602002602001820160405280156121d557816020015b6121c2614187565b8152602001906001900390816121ba5790505b50905060005b828110156126195760006001826121f29190615816565b90506000600a6000838152602001908152602001600020905080604051806101a0016040529081600082015481526020016001820160009054906101000a900460ff1615151515815260200160028201805461224d90615999565b80601f016020809104026020016040519081016040528092919081815260200182805461227990615999565b80156122c65780601f1061229b576101008083540402835291602001916122c6565b820191906000526020600020905b8154815290600101906020018083116122a957829003601f168201915b505050505081526020016003820180546122df90615999565b80601f016020809104026020016040519081016040528092919081815260200182805461230b90615999565b80156123585780601f1061232d57610100808354040283529160200191612358565b820191906000526020600020905b81548152906001019060200180831161233b57829003601f168201915b5050505050815260200160048201805461237190615999565b80601f016020809104026020016040519081016040528092919081815260200182805461239d90615999565b80156123ea5780601f106123bf576101008083540402835291602001916123ea565b820191906000526020600020905b8154815290600101906020018083116123cd57829003601f168201915b505050505081526020016005820154815260200160068201805461240d90615999565b80601f016020809104026020016040519081016040528092919081815260200182805461243990615999565b80156124865780601f1061245b57610100808354040283529160200191612486565b820191906000526020600020905b81548152906001019060200180831161246957829003601f168201915b505050505081526020016007820160009054906101000a900460ff16151515158152602001600882015481526020016009820160009054906101000a900473ffffffffffffffffffffffffffffffffffffffff1673ffffffffffffffffffffffffffffffffffffffff1673ffffffffffffffffffffffffffffffffffffffff168152602001600a820160009054906101000a900473ffffffffffffffffffffffffffffffffffffffff1673ffffffffffffffffffffffffffffffffffffffff1673ffffffffffffffffffffffffffffffffffffffff168152602001600b820160009054906101000a900473ffffffffffffffffffffffffffffffffffffffff1673ffffffffffffffffffffffffffffffffffffffff1673ffffffffffffffffffffffffffffffffffffffff168152602001600c820154815250508484815181106125f9577f4e487b7100000000000000000000000000000000000000000000000000000000600052603260045260246000fd5b602002602001018190525050508080612611906159cb565b9150506121db565b50809250505090565b61262a613659565b73ffffffffffffffffffffffffffffffffffffffff168273ffffffffffffffffffffffffffffffffffffffff161415612698576040517f08c379a000000000000000000000000000000000000000000000000000000000815260040161268f906154fd565b60405180910390fd5b80600560006126a5613659565b73ffffffffffffffffffffffffffffffffffffffff1673ffffffffffffffffffffffffffffffffffffffff16815260200190815260200160002060008473ffffffffffffffffffffffffffffffffffffffff1673ffffffffffffffffffffffffffffffffffffffff16815260200190815260200160002060006101000a81548160ff0219169083151502179055508173ffffffffffffffffffffffffffffffffffffffff16612752613659565b73ffffffffffffffffffffffffffffffffffffffff167f17307eab39ab6107e8899845ad3d59bd9653f200f220920489ca2b5937696c31836040516127979190615328565b60405180910390a35050565b600073ffffffffffffffffffffffffffffffffffffffff163373ffffffffffffffffffffffffffffffffffffffff1614156127dd57600080fd5b6127e6816135ed565b6127ef57600080fd5b60006127fa82611f36565b90503373ffffffffffffffffffffffffffffffffffffffff168173ffffffffffffffffffffffffffffffffffffffff161461283457600080fd5b6000600a6000848152602001908152602001600020604051806101a0016040529081600082015481526020016001820160009054906101000a900460ff1615151515815260200160028201805461288a90615999565b80601f01602080910402602001604051908101604052809291908181526020018280546128b690615999565b80156129035780601f106128d857610100808354040283529160200191612903565b820191906000526020600020905b8154815290600101906020018083116128e657829003601f168201915b5050505050815260200160038201805461291c90615999565b80601f016020809104026020016040519081016040528092919081815260200182805461294890615999565b80156129955780601f1061296a57610100808354040283529160200191612995565b820191906000526020600020905b81548152906001019060200180831161297857829003601f168201915b505050505081526020016004820180546129ae90615999565b80601f01602080910402602001604051908101604052809291908181526020018280546129da90615999565b8015612a275780601f106129fc57610100808354040283529160200191612a27565b820191906000526020600020905b815481529060010190602001808311612a0a57829003601f168201915b5050505050815260200160058201548152602001600682018054612a4a90615999565b80601f0160208091040260200160405190810160405280929190818152602001828054612a7690615999565b8015612ac35780601f10612a9857610100808354040283529160200191612ac3565b820191906000526020600020905b815481529060010190602001808311612aa657829003601f168201915b505050505081526020016007820160009054906101000a900460ff16151515158152602001600882015481526020016009820160009054906101000a900473ffffffffffffffffffffffffffffffffffffffff1673ffffffffffffffffffffffffffffffffffffffff1673ffffffffffffffffffffffffffffffffffffffff168152602001600a820160009054906101000a900473ffffffffffffffffffffffffffffffffffffffff1673ffffffffffffffffffffffffffffffffffffffff1673ffffffffffffffffffffffffffffffffffffffff168152602001600b820160009054906101000a900473ffffffffffffffffffffffffffffffffffffffff1673ffffffffffffffffffffffffffffffffffffffff1673ffffffffffffffffffffffffffffffffffffffff168152602001600c8201548152505090508060e0015115612c1f5760008160e0019015159081151581525050612c31565b60018160e00190151590811515815250505b80600a60008581526020019081526020016000206000820151816000015560208201518160010160006101000a81548160ff0219169083151502179055506040820151816002019080519060200190612c8b929190614235565b506060820151816003019080519060200190612ca8929190614235565b506080820151816004019080519060200190612cc5929190614235565b5060a0820151816005015560c0820151816006019080519060200190612cec929190614235565b5060e08201518160070160006101000a81548160ff02191690831515021790555061010082015181600801556101208201518160090160006101000a81548173ffffffffffffffffffffffffffffffffffffffff021916908373ffffffffffffffffffffffffffffffffffffffff16021790555061014082015181600a0160006101000a81548173ffffffffffffffffffffffffffffffffffffffff021916908373ffffffffffffffffffffffffffffffffffffffff16021790555061016082015181600b0160006101000a81548173ffffffffffffffffffffffffffffffffffffffff021916908373ffffffffffffffffffffffffffffffffffffffff16021790555061018082015181600c0155905050505050565b600b818051602081018201805184825260208301602085012081835280955050505050506000915054906101000a900460ff1681565b600080612e4583611f36565b905080915050919050565b612e61612e5b613659565b83613728565b612ea0576040517f08c379a0000000000000000000000000000000000000000000000000000000008152600401612e979061567d565b60405180910390fd5b612eac84848484613a78565b50505050565b6060612ebd826135ed565b612efc576040517f08c379a0000000000000000000000000000000000000000000000000000000008152600401612ef3906155dd565b60405180910390fd5b6000600660008481526020019081526020016000208054612f1c90615999565b80601f0160208091040260200160405190810160405280929190818152602001828054612f4890615999565b8015612f955780601f10612f6a57610100808354040283529160200191612f95565b820191906000526020600020905b815481529060010190602001808311612f7857829003601f168201915b505050505090506000612fa6613ad4565b9050600081511415612fbc578192505050612fff565b600082511115612ff1578082604051602001612fd992919061527b565b60405160208183030381529060405292505050612fff565b612ffa84613aeb565b925050505b919050565b6002600754141561304a576040517f08c379a00000000000000000000000000000000000000000000000000000000081526004016130419061569d565b60405180910390fd5b600260078190555060008311613095576040517f08c379a000000000000000000000000000000000000000000000000000000000815260040161308c906156bd565b60405180910390fd5b600073ffffffffffffffffffffffffffffffffffffffff163373ffffffffffffffffffffffffffffffffffffffff1614156130cf57600080fd5b6130d96008613a62565b6130eb6130e6600861371a565b6135ed565b156130f557600080fd5b600c826040516131059190615264565b908152602001604051809103902060009054906101000a900460ff161561312b57600080fd5b600b8760405161313b9190615264565b908152602001604051809103902060009054906101000a900460ff161561316157600080fd5b6131743361316f600861371a565b613b92565b613187613181600861371a565b83613d60565b6001600c836040516131999190615264565b908152602001604051809103902060006101000a81548160ff0219169083151502179055506001600b886040516131d09190615264565b908152602001604051809103902060006101000a81548160ff0219169083151502179055506000604051806101a0016040528061320d600861371a565b815260200188151581526020018981526020018781526020018681526020018581526020018481526020016001151581526020018381526020013373ffffffffffffffffffffffffffffffffffffffff1681526020013373ffffffffffffffffffffffffffffffffffffffff168152602001600073ffffffffffffffffffffffffffffffffffffffff1681526020016000815250905080600a60006132b2600861371a565b81526020019081526020016000206000820151816000015560208201518160010160006101000a81548160ff0219169083151502179055506040820151816002019080519060200190613306929190614235565b506060820151816003019080519060200190613323929190614235565b506080820151816004019080519060200190613340929190614235565b5060a0820151816005015560c0820151816006019080519060200190613367929190614235565b5060e08201518160070160006101000a81548160ff02191690831515021790555061010082015181600801556101208201518160090160006101000a81548173ffffffffffffffffffffffffffffffffffffffff021916908373ffffffffffffffffffffffffffffffffffffffff16021790555061014082015181600a0160006101000a81548173ffffffffffffffffffffffffffffffffffffffff021916908373ffffffffffffffffffffffffffffffffffffffff16021790555061016082015181600b0160006101000a81548173ffffffffffffffffffffffffffffffffffffffff021916908373ffffffffffffffffffffffffffffffffffffffff16021790555061018082015181600c0155905050600082613486600861371a565b7ff534d901aeabf8f73cb592afd5790ca774cb870956663dc3f4fc5cbca78ffb238a8c8b8b8b8b6001333360006040516134c99a99989796959493929190615343565b60405180910390a450600160078190555050505050505050565b6000600560008473ffffffffffffffffffffffffffffffffffffffff1673ffffffffffffffffffffffffffffffffffffffff16815260200190815260200160002060008373ffffffffffffffffffffffffffffffffffffffff1673ffffffffffffffffffffffffffffffffffffffff16815260200190815260200160002060009054906101000a900460ff16905092915050565b60088060000154905081565b60007f01ffc9a7000000000000000000000000000000000000000000000000000000007bffffffffffffffffffffffffffffffffffffffffffffffffffffffff1916827bffffffffffffffffffffffffffffffffffffffffffffffffffffffff1916149050919050565b60008073ffffffffffffffffffffffffffffffffffffffff166002600084815260200190815260200160002060009054906101000a900473ffffffffffffffffffffffffffffffffffffffff1673ffffffffffffffffffffffffffffffffffffffff1614159050919050565b600033905090565b816004600083815260200190815260200160002060006101000a81548173ffffffffffffffffffffffffffffffffffffffff021916908373ffffffffffffffffffffffffffffffffffffffff160217905550808273ffffffffffffffffffffffffffffffffffffffff166136d483611f36565b73ffffffffffffffffffffffffffffffffffffffff167f8c5be1e5ebec7d5bd14f71427d1e84f3dd0314c0f7b2291e5b200ac8c7c3b92560405160405180910390a45050565b600081600001549050919050565b6000613733826135ed565b613772576040517f08c379a00000000000000000000000000000000000000000000000000000000081526004016137699061551d565b60405180910390fd5b600061377d83611f36565b90508073ffffffffffffffffffffffffffffffffffffffff168473ffffffffffffffffffffffffffffffffffffffff1614806137ec57508373ffffffffffffffffffffffffffffffffffffffff166137d48461082e565b73ffffffffffffffffffffffffffffffffffffffff16145b806137fd57506137fc81856134e3565b5b91505092915050565b8273ffffffffffffffffffffffffffffffffffffffff1661382682611f36565b73ffffffffffffffffffffffffffffffffffffffff161461387c576040517f08c379a00000000000000000000000000000000000000000000000000000000081526004016138739061561d565b60405180910390fd5b600073ffffffffffffffffffffffffffffffffffffffff168273ffffffffffffffffffffffffffffffffffffffff1614156138ec576040517f08c379a00000000000000000000000000000000000000000000000000000000081526004016138e3906154dd565b60405180910390fd5b6138f7838383613dd4565b613902600082613661565b6001600360008573ffffffffffffffffffffffffffffffffffffffff1673ffffffffffffffffffffffffffffffffffffffff1681526020019081526020016000206000828254613952919061589d565b925050819055506001600360008473ffffffffffffffffffffffffffffffffffffffff1673ffffffffffffffffffffffffffffffffffffffff16815260200190815260200160002060008282546139a99190615816565b92505081905550816002600083815260200190815260200160002060006101000a81548173ffffffffffffffffffffffffffffffffffffffff021916908373ffffffffffffffffffffffffffffffffffffffff160217905550808273ffffffffffffffffffffffffffffffffffffffff168473ffffffffffffffffffffffffffffffffffffffff167fddf252ad1be2c89b69c2b068fc378daa952ba7f163c4a11628f55a4df523b3ef60405160405180910390a4505050565b6001816000016000828254019250508190555050565b613a83848484613806565b613a8f84848484613dd9565b613ace576040517f08c379a0000000000000000000000000000000000000000000000000000000008152600401613ac59061543d565b60405180910390fd5b50505050565b606060405180602001604052806000815250905090565b6060613af6826135ed565b613b35576040517f08c379a0000000000000000000000000000000000000000000000000000000008152600401613b2c9061563d565b60405180910390fd5b6000613b3f613ad4565b90506000815111613b5f5760405180602001604052806000815250613b8a565b80613b6984613fa8565b604051602001613b7a92919061527b565b6040516020818303038152906040525b915050919050565b600073ffffffffffffffffffffffffffffffffffffffff168273ffffffffffffffffffffffffffffffffffffffff161415613c02576040517f08c379a0000000000000000000000000000000000000000000000000000000008152600401613bf9906155bd565b60405180910390fd5b613c0b816135ed565b15613c4b576040517f08c379a0000000000000000000000000000000000000000000000000000000008152600401613c42906154bd565b60405180910390fd5b613c5760008383613dd4565b6001600360008473ffffffffffffffffffffffffffffffffffffffff1673ffffffffffffffffffffffffffffffffffffffff1681526020019081526020016000206000828254613ca79190615816565b92505081905550816002600083815260200190815260200160002060006101000a81548173ffffffffffffffffffffffffffffffffffffffff021916908373ffffffffffffffffffffffffffffffffffffffff160217905550808273ffffffffffffffffffffffffffffffffffffffff16600073ffffffffffffffffffffffffffffffffffffffff167fddf252ad1be2c89b69c2b068fc378daa952ba7f163c4a11628f55a4df523b3ef60405160405180910390a45050565b613d69826135ed565b613da8576040517f08c379a0000000000000000000000000000000000000000000000000000000008152600401613d9f9061559d565b60405180910390fd5b80600660008481526020019081526020016000209080519060200190613dcf929190614235565b505050565b505050565b6000613dfa8473ffffffffffffffffffffffffffffffffffffffff16614174565b15613f9b578373ffffffffffffffffffffffffffffffffffffffff1663150b7a02613e23613659565b8786866040518563ffffffff167c0100000000000000000000000000000000000000000000000000000000028152600401613e6194939291906152ba565b602060405180830381600087803b158015613e7b57600080fd5b505af1925050508015613eac57506040513d601f19601f82011682018060405250810190613ea991906145e1565b60015b613f2f573d8060008114613edc576040519150601f19603f3d011682016040523d82523d6000602084013e613ee1565b606091505b50600081511415613f27576040517f08c379a0000000000000000000000000000000000000000000000000000000008152600401613f1e9061543d565b60405180910390fd5b805181602001fd5b63150b7a027c0100000000000000000000000000000000000000000000000000000000027bffffffffffffffffffffffffffffffffffffffffffffffffffffffff1916817bffffffffffffffffffffffffffffffffffffffffffffffffffffffff191614915050613fa0565b600190505b949350505050565b60606000821415613ff0576040518060400160405280600181526020017f3000000000000000000000000000000000000000000000000000000000000000815250905061416f565b600082905060005b6000821461402257808061400b906159cb565b915050600a8261401b919061586c565b9150613ff8565b60008167ffffffffffffffff811115614064577f4e487b7100000000000000000000000000000000000000000000000000000000600052604160045260246000fd5b6040519080825280601f01601f1916602001820160405280156140965781602001600182028036833780820191505090505b5090505b60008514614168576001826140af919061589d565b9150600a856140be9190615a14565b60306140ca9190615816565b7f010000000000000000000000000000000000000000000000000000000000000002818381518110614125577f4e487b7100000000000000000000000000000000000000000000000000000000600052603260045260246000fd5b60200101907effffffffffffffffffffffffffffffffffffffffffffffffffffffffffffff1916908160001a905350600a85614161919061586c565b945061409a565b8093505050505b919050565b600080823b905060008111915050919050565b604051806101a0016040528060008152602001600015158152602001606081526020016060815260200160608152602001600081526020016060815260200160001515815260200160008152602001600073ffffffffffffffffffffffffffffffffffffffff168152602001600073ffffffffffffffffffffffffffffffffffffffff168152602001600073ffffffffffffffffffffffffffffffffffffffff168152602001600081525090565b82805461424190615999565b90600052602060002090601f01602090048101928261426357600085556142aa565b82601f1061427c57805160ff19168380011785556142aa565b828001600101855582156142aa579182015b828111156142a957825182559160200191906001019061428e565b5b5090506142b791906142bb565b5090565b5b808211156142d45760008160009055506001016142bc565b5090565b60006142eb6142e684615729565b6156f8565b90508281526020810184848401111561430357600080fd5b61430e848285615957565b509392505050565b600061432961432484615759565b6156f8565b90508281526020810184848401111561434157600080fd5b61434c848285615957565b509392505050565b60008135905061436381615b12565b92915050565b60008135905061437881615b29565b92915050565b60008135905061438d81615b40565b92915050565b6000815190506143a281615b40565b92915050565b600082601f8301126143b957600080fd5b81356143c98482602086016142d8565b91505092915050565b600082601f8301126143e357600080fd5b81356143f3848260208601614316565b91505092915050565b60008135905061440b81615b57565b92915050565b60006020828403121561442357600080fd5b600061443184828501614354565b91505092915050565b6000806040838503121561444d57600080fd5b600061445b85828601614354565b925050602061446c85828601614354565b9150509250929050565b60008060006060848603121561448b57600080fd5b600061449986828701614354565b93505060206144aa86828701614354565b92505060406144bb868287016143fc565b9150509250925092565b600080600080608085870312156144db57600080fd5b60006144e987828801614354565b94505060206144fa87828801614354565b935050604061450b878288016143fc565b925050606085013567ffffffffffffffff81111561452857600080fd5b614534878288016143a8565b91505092959194509250565b6000806040838503121561455357600080fd5b600061456185828601614354565b925050602061457285828601614369565b9150509250929050565b6000806040838503121561458f57600080fd5b600061459d85828601614354565b92505060206145ae858286016143fc565b9150509250929050565b6000602082840312156145ca57600080fd5b60006145d88482850161437e565b91505092915050565b6000602082840312156145f357600080fd5b600061460184828501614393565b91505092915050565b60006020828403121561461c57600080fd5b600082013567ffffffffffffffff81111561463657600080fd5b614642848285016143d2565b91505092915050565b600080600080600080600060e0888a03121561466657600080fd5b600088013567ffffffffffffffff81111561468057600080fd5b61468c8a828b016143d2565b975050602061469d8a828b01614369565b965050604088013567ffffffffffffffff8111156146ba57600080fd5b6146c68a828b016143d2565b955050606088013567ffffffffffffffff8111156146e357600080fd5b6146ef8a828b016143d2565b94505060806147008a828b016143fc565b93505060a088013567ffffffffffffffff81111561471d57600080fd5b6147298a828b016143d2565b92505060c061473a8a828b016143fc565b91505092959891949750929550565b60006020828403121561475b57600080fd5b6000614769848285016143fc565b91505092915050565b6000806040838503121561478557600080fd5b6000614793858286016143fc565b92505060206147a4858286016143fc565b9150509250929050565b60006147ba8383615118565b905092915050565b6147cb816158e3565b82525050565b6147da816158e3565b82525050565b6147e9816158d1565b82525050565b60006147fa82615799565b61480481856157c7565b93508360208202850161481685615789565b8060005b85811015614852578484038952815161483385826147ae565b945061483e836157ba565b925060208a0199505060018101905061481a565b50829750879550505050505092915050565b61486d816158f5565b82525050565b61487c816158f5565b82525050565b600061488d826157a4565b61489781856157d8565b93506148a7818560208601615966565b6148b081615b01565b840191505092915050565b60006148c6826157af565b6148d081856157e9565b93506148e0818560208601615966565b6148e981615b01565b840191505092915050565b60006148ff826157af565b61490981856157fa565b9350614919818560208601615966565b61492281615b01565b840191505092915050565b6000614938826157af565b614942818561580b565b9350614952818560208601615966565b80840191505092915050565b600061496b601f836157fa565b91507f4f776e65722063616e206e6f742062757920686973206f776e20746f6b656e006000830152602082019050919050565b60006149ab6032836157fa565b91507f4552433732313a207472616e7366657220746f206e6f6e20455243373231526560008301527f63656976657220696d706c656d656e74657200000000000000000000000000006020830152604082019050919050565b6000614a11601a836157fa565b91507f5468697320746f6b656e206973206e6f7420666f722073616c650000000000006000830152602082019050919050565b6000614a51602b836157fa565b91507f4f776e65722073686f756c64206e6f7420626520616e207a65726f206164647260008301527f657373206163636f756e740000000000000000000000000000000000000000006020830152604082019050919050565b6000614ab76024836157fa565b91507f4275796572206973206e6f7420616e207a65726f206163636f756e742061646460008301527f72657373000000000000000000000000000000000000000000000000000000006020830152604082019050919050565b6000614b1d601c836157fa565b91507f4552433732313a20746f6b656e20616c7265616479206d696e746564000000006000830152602082019050919050565b6000614b5d6024836157fa565b91507f4552433732313a207472616e7366657220746f20746865207a65726f2061646460008301527f72657373000000000000000000000000000000000000000000000000000000006020830152604082019050919050565b6000614bc36019836157fa565b91507f4552433732313a20617070726f766520746f2063616c6c6572000000000000006000830152602082019050919050565b6000614c03602c836157fa565b91507f4552433732313a206f70657261746f7220717565727920666f72206e6f6e657860008301527f697374656e7420746f6b656e00000000000000000000000000000000000000006020830152604082019050919050565b6000614c696038836157fa565b91507f4552433732313a20617070726f76652063616c6c6572206973206e6f74206f7760008301527f6e6572206e6f7220617070726f76656420666f7220616c6c00000000000000006020830152604082019050919050565b6000614ccf602a836157fa565b91507f4552433732313a2062616c616e636520717565727920666f7220746865207a6560008301527f726f2061646472657373000000000000000000000000000000000000000000006020830152604082019050919050565b6000614d356029836157fa565b91507f4552433732313a206f776e657220717565727920666f72206e6f6e657869737460008301527f656e7420746f6b656e00000000000000000000000000000000000000000000006020830152604082019050919050565b6000614d9b602e836157fa565b91507f45524337323155524953746f726167653a2055524920736574206f66206e6f6e60008301527f6578697374656e7420746f6b656e0000000000000000000000000000000000006020830152604082019050919050565b6000614e016020836157fa565b91507f4552433732313a206d696e7420746f20746865207a65726f20616464726573736000830152602082019050919050565b6000614e416031836157fa565b91507f45524337323155524953746f726167653a2055524920717565727920666f722060008301527f6e6f6e6578697374656e7420746f6b656e0000000000000000000000000000006020830152604082019050919050565b6000614ea7602c836157fa565b91507f4552433732313a20617070726f76656420717565727920666f72206e6f6e657860008301527f697374656e7420746f6b656e00000000000000000000000000000000000000006020830152604082019050919050565b6000614f0d6029836157fa565b91507f4552433732313a207472616e73666572206f6620746f6b656e2074686174206960008301527f73206e6f74206f776e00000000000000000000000000000000000000000000006020830152604082019050919050565b6000614f73602f836157fa565b91507f4552433732314d657461646174613a2055524920717565727920666f72206e6f60008301527f6e6578697374656e7420746f6b656e00000000000000000000000000000000006020830152604082019050919050565b6000614fd96021836157fa565b91507f4552433732313a20617070726f76616c20746f2063757272656e74206f776e6560008301527f72000000000000000000000000000000000000000000000000000000000000006020830152604082019050919050565b600061503f6031836157fa565b91507f4552433732313a207472616e736665722063616c6c6572206973206e6f74206f60008301527f776e6572206e6f7220617070726f7665640000000000000000000000000000006020830152604082019050919050565b60006150a5601f836157fa565b91507f5265656e7472616e637947756172643a207265656e7472616e742063616c6c006000830152602082019050919050565b60006150e5601c836157fa565b91507f5072696365206d757374206265206174206c65617374203120776569000000006000830152602082019050919050565b60006101a0830160008301516151316000860182615246565b5060208301516151446020860182614864565b506040830151848203604086015261515c82826148bb565b9150506060830151848203606086015261517682826148bb565b9150506080830151848203608086015261519082826148bb565b91505060a08301516151a560a0860182615246565b5060c083015184820360c08601526151bd82826148bb565b91505060e08301516151d260e0860182614864565b506101008301516151e7610100860182615246565b506101208301516151fc6101208601826147c2565b506101408301516152116101408601826147c2565b506101608301516152266101608601826147c2565b5061018083015161523b610180860182615246565b508091505092915050565b61524f8161594d565b82525050565b61525e8161594d565b82525050565b6000615270828461492d565b915081905092915050565b6000615287828561492d565b9150615293828461492d565b91508190509392505050565b60006020820190506152b460008301846147e0565b92915050565b60006080820190506152cf60008301876147e0565b6152dc60208301866147e0565b6152e96040830185615255565b81810360608301526152fb8184614882565b905095945050505050565b6000602082019050818103600083015261532081846147ef565b905092915050565b600060208201905061533d6000830184614873565b92915050565b600061014082019050615359600083018d614873565b818103602083015261536b818c6148f4565b9050818103604083015261537f818b6148f4565b90508181036060830152615393818a6148f4565b90506153a26080830189615255565b81810360a08301526153b481886148f4565b90506153c360c0830187614873565b6153d060e08301866147d1565b6153de6101008301856147d1565b6153ec6101208301846147d1565b9b9a5050505050505050505050565b6000602082019050818103600083015261541581846148f4565b905092915050565b600060208201905081810360008301526154368161495e565b9050919050565b600060208201905081810360008301526154568161499e565b9050919050565b6000602082019050818103600083015261547681614a04565b9050919050565b6000602082019050818103600083015261549681614a44565b9050919050565b600060208201905081810360008301526154b681614aaa565b9050919050565b600060208201905081810360008301526154d681614b10565b9050919050565b600060208201905081810360008301526154f681614b50565b9050919050565b6000602082019050818103600083015261551681614bb6565b9050919050565b6000602082019050818103600083015261553681614bf6565b9050919050565b6000602082019050818103600083015261555681614c5c565b9050919050565b6000602082019050818103600083015261557681614cc2565b9050919050565b6000602082019050818103600083015261559681614d28565b9050919050565b600060208201905081810360008301526155b681614d8e565b9050919050565b600060208201905081810360008301526155d681614df4565b9050919050565b600060208201905081810360008301526155f681614e34565b9050919050565b6000602082019050818103600083015261561681614e9a565b9050919050565b6000602082019050818103600083015261563681614f00565b9050919050565b6000602082019050818103600083015261565681614f66565b9050919050565b6000602082019050818103600083015261567681614fcc565b9050919050565b6000602082019050818103600083015261569681615032565b9050919050565b600060208201905081810360008301526156b681615098565b9050919050565b600060208201905081810360008301526156d6816150d8565b9050919050565b60006020820190506156f26000830184615255565b92915050565b6000604051905081810181811067ffffffffffffffff8211171561571f5761571e615ad2565b5b8060405250919050565b600067ffffffffffffffff82111561574457615743615ad2565b5b601f19601f8301169050602081019050919050565b600067ffffffffffffffff82111561577457615773615ad2565b5b601f19601f8301169050602081019050919050565b6000819050602082019050919050565b600081519050919050565b600081519050919050565b600081519050919050565b6000602082019050919050565b600082825260208201905092915050565b600082825260208201905092915050565b600082825260208201905092915050565b600082825260208201905092915050565b600081905092915050565b60006158218261594d565b915061582c8361594d565b9250827fffffffffffffffffffffffffffffffffffffffffffffffffffffffffffffffff0382111561586157615860615a45565b5b828201905092915050565b60006158778261594d565b91506158828361594d565b92508261589257615891615a74565b5b828204905092915050565b60006158a88261594d565b91506158b38361594d565b9250828210156158c6576158c5615a45565b5b828203905092915050565b60006158dc8261592d565b9050919050565b60006158ee8261592d565b9050919050565b60008115159050919050565b60007fffffffff0000000000000000000000000000000000000000000000000000000082169050919050565b600073ffffffffffffffffffffffffffffffffffffffff82169050919050565b6000819050919050565b82818337600083830152505050565b60005b83811015615984578082015181840152602081019050615969565b83811115615993576000848401525b50505050565b600060028204905060018216806159b157607f821691505b602082108114156159c5576159c4615aa3565b5b50919050565b60006159d68261594d565b91507fffffffffffffffffffffffffffffffffffffffffffffffffffffffffffffffff821415615a0957615a08615a45565b5b600182019050919050565b6000615a1f8261594d565b9150615a2a8361594d565b925082615a3a57615a39615a74565b5b828206905092915050565b7f4e487b7100000000000000000000000000000000000000000000000000000000600052601160045260246000fd5b7f4e487b7100000000000000000000000000000000000000000000000000000000600052601260045260246000fd5b7f4e487b7100000000000000000000000000000000000000000000000000000000600052602260045260246000fd5b7f4e487b7100000000000000000000000000000000000000000000000000000000600052604160045260246000fd5b6000601f19601f8301169050919050565b615b1b816158d1565b8114615b2657600080fd5b50565b615b32816158f5565b8114615b3d57600080fd5b50565b615b4981615901565b8114615b5457600080fd5b50565b615b608161594d565b8114615b6b57600080fd5b5056fea2646970667358221220132a56279da159807a8deeacda47f1c511edeff6f51950ed13deeff8130fd82264736f6c63430008000033",
  "immutableReferences": {},
  "source": "// SPDX-License-Identifier: MIT\r\n// pragma abicoder v2;\r\npragma solidity ^0.8.0;\r\nimport \"@openzeppelin/contracts/utils/Counters.sol\";\r\nimport \"@openzeppelin/contracts/security/ReentrancyGuard.sol\";\r\nimport \"@openzeppelin/contracts/token/ERC721/extensions/ERC721URIStorage.sol\";\r\nimport \"@openzeppelin/contracts/token/ERC721/ERC721.sol\";\r\n// import \"./ERC721.sol\";\r\n// CryptoTweets smart contract inherits ERC721 interface\r\ncontract CryptoTweets is ERC721URIStorage, ReentrancyGuard {\r\n\r\n    using Counters for Counters.Counter; \r\n    Counters.Counter public CryptoTweetCounter;  // total number of CryptoTweets minted\r\n    Counters.Counter private CryptoTweetSoldCounter;  // total number of CryptoTweets minted\r\n\r\n    // initialize contract while deployment with contract's collection name and token\r\n    constructor() ERC721(\"Crypto Tweets Collection\", \"CT\") { \r\n     }\r\n\r\n    // define CryptoTweet struct\r\n    struct CryptoTweet {\r\n      uint256 tokenId;\r\n      bool filetype; //image false, video true. \r\n      string tokenName;\r\n      string tokenSymbol;\r\n      string tokenDesc;\r\n      uint256 price;\r\n      string tokenURI;\r\n      bool sold;\r\n      uint256 saleOption;  //\r\n      address payable mintedBy;\r\n      address payable currentOwner;\r\n      address payable previousOwner;\r\n      uint256 numberOfTransfers;\r\n    }\r\n\r\n    // map CryptoTweet's token id to CryptoTweet\r\n    mapping(uint256 => CryptoTweet) private allCryptoTweets;\r\n    // check if token name exists\r\n    mapping(string => bool) public tokenNameExists;\r\n    // check if token URI exists\r\n    mapping(string => bool) public tokenURIExists;\r\n\r\n    event CryptoTweetCreated(    \r\n      uint256 indexed tokenId,\r\n      bool filetype, //image false, video true. \r\n      string tokenName,\r\n      string tokenSymbol,\r\n      string tokenDesc,\r\n      uint256 price,\r\n      string tokenURI,\r\n      bool sold,\r\n      uint256 indexed saleOption,  //\r\n      address payable mintedBy,\r\n      address payable currentOwner,\r\n      address payable previousOwner,\r\n      uint256 indexed numberOfTransfers\r\n    );\r\n    // mint a new CryptoTweet\r\n    function mintCryptoTweet(string memory _name,bool _filetype, string memory _symbol,string memory _desc, uint256 _price, string memory _tokenURI,uint256 _option) external nonReentrant {  \r\n      require(_price > 0, \"Price must be at least 1 wei\");\r\n      // check if thic fucntion caller is not an zero address account\r\n      require(msg.sender != address(0));\r\n      // increment counter\r\n      CryptoTweetCounter.increment();\r\n      // check if a token exists with the above token id => incremented counter\r\n      require(!_exists(CryptoTweetCounter.current()));\r\n\r\n      // check if the token URI already exists or not\r\n      require(!tokenURIExists[_tokenURI]);\r\n      // check if the token name already exists or not\r\n      require(!tokenNameExists[_name]);\r\n\r\n      // mint the token\r\n      _mint(msg.sender, CryptoTweetCounter.current());\r\n      // set token URI (bind token id with the passed in token URI)\r\n      _setTokenURI(CryptoTweetCounter.current(), _tokenURI);\r\n      // setApprovalForAll(contractAddress, true);\r\n\r\n      // make passed token URI as exists\r\n      tokenURIExists[_tokenURI] = true;\r\n      // make token name passed as exists\r\n      tokenNameExists[_name] = true;\r\n\r\n      // creat a new CryptoTweet (struct) and pass in new values\r\n      CryptoTweet memory newCryptoBoy = CryptoTweet(\r\n        CryptoTweetCounter.current(),\r\n        _filetype,\r\n        _name,\r\n        _symbol,\r\n        _desc,\r\n        _price,      \r\n        _tokenURI,\r\n        true,\r\n        _option,\r\n        payable(msg.sender),\r\n        payable(msg.sender),\r\n        payable(address(0)),\r\n        0\r\n      );\r\n      allCryptoTweets[CryptoTweetCounter.current()] = newCryptoBoy;\r\n      emit CryptoTweetCreated(\r\n        CryptoTweetCounter.current(),\r\n        _filetype,\r\n        _name,\r\n        _symbol,\r\n        _desc,\r\n        _price,\r\n        _tokenURI,\r\n        true,\r\n        _option,\r\n        payable(msg.sender),\r\n        payable(msg.sender),\r\n        payable(address(0)),\r\n        0\r\n      );\r\n    }\r\n    /* Returns all  market items */\r\n    function fetchCryptoTweets() public view returns (CryptoTweet[] memory) {\r\n      uint256 itemCount = CryptoTweetCounter.current();\r\n\r\n      CryptoTweet[] memory items = new CryptoTweet[](itemCount);\r\n      for (uint256 i = 0; i < itemCount; i++) {\r\n          uint256 currentId = i + 1;\r\n          CryptoTweet storage currentItem = allCryptoTweets[currentId];\r\n          items[i] = currentItem;\r\n      }\r\n      return items;\r\n    }\r\n    /* Returns all unsold market items */\r\n    // function fetchUnsoldCryptoTweets() public view returns (CryptoTweet[] memory) {\r\n    //   uint256 itemCount = CryptoTweetCounter.current();\r\n    //   uint256 unsoldItemCount = CryptoTweetCounter.current() - CryptoTweetSoldCounter.current();\r\n    //   uint256 currentIndex = 0;\r\n\r\n    //   CryptoTweet[] memory items = new CryptoTweet[](unsoldItemCount);\r\n    //   for (uint256 i = 0; i < itemCount; i++) {\r\n    //     if (allCryptoTweets[i + 1].previousOwner == address(0)) {\r\n    //       uint256 currentId = i + 1;\r\n    //       CryptoTweet storage currentItem = allCryptoTweets[currentId];\r\n    //       items[currentIndex] = currentItem;\r\n    //       currentIndex += 1;\r\n    //     }\r\n    //   }\r\n    //   return items;\r\n    // }\r\n\r\n  /* Returns only items that a user has owned */\r\n    function fetchMyNFTs() public view returns (CryptoTweet[] memory) {\r\n      uint256 totalItemCount = CryptoTweetCounter.current();\r\n      uint256 itemCount = 0;\r\n      uint256 currentIndex = 0;\r\n\r\n      for (uint256 i = 0; i < totalItemCount; i++) {\r\n        if (allCryptoTweets[i + 1].currentOwner ==msg.sender) {\r\n          itemCount += 1;\r\n        }\r\n      }\r\n      CryptoTweet[] memory items = new CryptoTweet[](itemCount);\r\n      for (uint256 i = 0; i < totalItemCount; i++) {\r\n        if (allCryptoTweets[i + 1].currentOwner ==msg.sender) {\r\n          uint256 currentId = i + 1;\r\n          CryptoTweet storage currentItem = allCryptoTweets[currentId];\r\n          items[currentIndex] = currentItem;\r\n          currentIndex += 1;\r\n        }\r\n      }\r\n      return items;\r\n    }\r\n    // get owner of the token\r\n    function getTokenOwner(uint256 _tokenId) public view returns(address) {\r\n      address _tokenOwner = ownerOf(_tokenId);\r\n      return _tokenOwner;\r\n    }\r\n\r\n    // get metadata of the token\r\n    function getTokenMetaData(uint256 _tokenId) public view returns(string memory) {\r\n      string memory tokenMetaData = tokenURI(_tokenId);\r\n      return tokenMetaData;\r\n    }\r\n\r\n    // get total number of tokens owned by an address\r\n    function getTotalNumberOfTokensOwnedByAnAddress(address _owner) public view returns(uint256) {\r\n      uint256 totalNumberOfTokensOwned = balanceOf(_owner);\r\n      return totalNumberOfTokensOwned;\r\n    }\r\n\r\n    // check if the token already exists\r\n    function getTokenExists(uint256 _tokenId) public view returns(bool) {\r\n      bool tokenExists = _exists(_tokenId);\r\n      return tokenExists;\r\n    }\r\n\r\n    // by a token by passing in the token's id\r\n    function buyToken(uint256 _tokenId) public payable {\r\n      // check if the function caller is not an zero account address\r\n      require(msg.sender != address(0),\"Buyer is not an zero account address\");\r\n      // check if the token id of the token being bought exists or not\r\n      require(_exists(_tokenId));\r\n      address tokenOwner = ownerOf(_tokenId);\r\n      // token's owner should not be an zero address account\r\n      require(tokenOwner != address(0),\"Owner should not be an zero address account\");\r\n      // the one who wants to buy the token should not be the token's owner\r\n      require(tokenOwner != msg.sender,\"Owner can not buy his own token\");\r\n      // get that token from all CryptoTweets mapping and create a memory of it defined as (struct => CryptoTweet)\r\n      CryptoTweet memory CryptoTweet = allCryptoTweets[_tokenId];\r\n      // price sent in to buy should be equal to or more than the token's price\r\n      // require(msg.value >= CryptoTweet.price,\"Buyer's balance must be greater than token price\");\r\n      // token should be for sale\r\n      require(CryptoTweet.sold,\"This token is not for sale\");\r\n      // transfer the token from owner to the caller of the function (buyer)\r\n      _transfer(CryptoTweet.currentOwner, msg.sender, _tokenId);\r\n      // get owner of the token\r\n      address payable sendTo = CryptoTweet.currentOwner;\r\n      // send token's worth of ethers to the owner\r\n      sendTo.transfer(msg.value);\r\n      // update the token's previous owner\r\n      CryptoTweet.previousOwner = CryptoTweet.currentOwner;\r\n      // update the token's current owner\r\n      CryptoTweet.currentOwner = payable(msg.sender);\r\n      // update the how many times this token was transfered\r\n      CryptoTweetSoldCounter.increment();\r\n      CryptoTweet.numberOfTransfers=CryptoTweetSoldCounter.current();\r\n      // set and update that token in the mapping\r\n      allCryptoTweets[_tokenId] = CryptoTweet;\r\n    }\r\n\r\n    function changeTokenPrice(uint256 _tokenId, uint256 _newPrice) public {\r\n      // require caller of the function is not an empty address\r\n      require(msg.sender != address(0));\r\n      // require that token should exist\r\n      require(_exists(_tokenId));\r\n      // get the token's owner\r\n      address tokenOwner = ownerOf(_tokenId);\r\n      // check that token's owner should be equal to the caller of the function\r\n      require(tokenOwner == msg.sender);\r\n      // get that token from all CryptoTweets mapping and create a memory of it defined as (struct => CryptoTweet)\r\n      CryptoTweet memory cryptoTweet = allCryptoTweets[_tokenId];\r\n      // update token's price with new price\r\n      cryptoTweet.price = _newPrice;\r\n      // set and update that token in the mapping\r\n      allCryptoTweets[_tokenId] = cryptoTweet;\r\n    }\r\n\r\n    // switch between set for sale and set not for sale\r\n    function toggleForSale(uint256 _tokenId) public {\r\n      // require caller of the function is not an empty address\r\n      require(msg.sender != address(0));\r\n      // require that token should exist\r\n      require(_exists(_tokenId));\r\n      // get the token's owner\r\n      address tokenOwner = ownerOf(_tokenId);\r\n      // check that token's owner should be equal to the caller of the function\r\n      require(tokenOwner == msg.sender);\r\n      // get that token from all CryptoTweets mapping and create a memory of it defined as (struct => CryptoTweet)\r\n      CryptoTweet memory cryptoTweet = allCryptoTweets[_tokenId];\r\n      // if token's forSale is false make it true and vice versa\r\n      if(cryptoTweet.sold) {\r\n        cryptoTweet.sold = false;\r\n      } else {\r\n        cryptoTweet.sold = true;\r\n      }\r\n      // set and update that token in the mapping\r\n      allCryptoTweets[_tokenId] = cryptoTweet;\r\n    }\r\n}",
  "sourcePath": "E:\\Workspace\\viavix\\viavix\\client\\contracts\\CryptoTweets.sol",
  "compiler": {
    "name": "solc",
    "version": "0.8.0+commit.c7dfd78e.Emscripten.clang"
  },
  "schemaVersion": "3.4.3",
  "updatedAt": "2021-10-25T18:21:57.237Z",
  "networkType": "ethereum",
  "devdoc": {
    "kind": "dev",
    "methods": {
      "approve(address,uint256)": {
        "details": "See {IERC721-approve}."
      },
      "balanceOf(address)": {
        "details": "See {IERC721-balanceOf}."
      },
      "getApproved(uint256)": {
        "details": "See {IERC721-getApproved}."
      },
      "isApprovedForAll(address,address)": {
        "details": "See {IERC721-isApprovedForAll}."
      },
      "name()": {
        "details": "See {IERC721Metadata-name}."
      },
      "ownerOf(uint256)": {
        "details": "See {IERC721-ownerOf}."
      },
      "safeTransferFrom(address,address,uint256)": {
        "details": "See {IERC721-safeTransferFrom}."
      },
      "safeTransferFrom(address,address,uint256,bytes)": {
        "details": "See {IERC721-safeTransferFrom}."
      },
      "setApprovalForAll(address,bool)": {
        "details": "See {IERC721-setApprovalForAll}."
      },
      "supportsInterface(bytes4)": {
        "details": "See {IERC165-supportsInterface}."
      },
      "symbol()": {
        "details": "See {IERC721Metadata-symbol}."
      },
      "tokenURI(uint256)": {
        "details": "See {IERC721Metadata-tokenURI}."
      },
      "transferFrom(address,address,uint256)": {
        "details": "See {IERC721-transferFrom}."
      }
    },
    "version": 1
  },
  "userdoc": {
    "kind": "user",
    "methods": {},
    "version": 1
  }
}