{
  "contractName": "Register",
  "abi": [
    {
      "inputs": [],
      "stateMutability": "nonpayable",
      "type": "constructor"
    },
    {
      "anonymous": false,
      "inputs": [
        {
          "indexed": false,
          "internalType": "uint256",
          "name": "id",
          "type": "uint256"
        },
        {
          "indexed": false,
          "internalType": "address",
          "name": "ethAdress",
          "type": "address"
        },
        {
          "indexed": false,
          "internalType": "string",
          "name": "name",
          "type": "string"
        },
        {
          "indexed": false,
          "internalType": "string",
          "name": "username",
          "type": "string"
        },
        {
          "indexed": false,
          "internalType": "string",
          "name": "email",
          "type": "string"
        },
        {
          "indexed": false,
          "internalType": "string",
          "name": "password",
          "type": "string"
        },
        {
          "indexed": false,
          "internalType": "string",
          "name": "profileImgHash",
          "type": "string"
        },
        {
          "indexed": false,
          "internalType": "enum Register.accountStatus",
          "name": "status",
          "type": "uint8"
        }
      ],
      "name": "logRegisterUser",
      "type": "event"
    },
    {
      "inputs": [
        {
          "internalType": "address",
          "name": "",
          "type": "address"
        }
      ],
      "name": "isMaintainer",
      "outputs": [
        {
          "internalType": "bool",
          "name": "",
          "type": "bool"
        }
      ],
      "stateMutability": "view",
      "type": "function",
      "constant": true
    },
    {
      "inputs": [],
      "name": "name",
      "outputs": [
        {
          "internalType": "string",
          "name": "",
          "type": "string"
        }
      ],
      "stateMutability": "view",
      "type": "function",
      "constant": true
    },
    {
      "inputs": [],
      "name": "owner",
      "outputs": [
        {
          "internalType": "address payable",
          "name": "",
          "type": "address"
        }
      ],
      "stateMutability": "view",
      "type": "function",
      "constant": true
    },
    {
      "inputs": [],
      "name": "petcat",
      "outputs": [
        {
          "internalType": "string",
          "name": "",
          "type": "string"
        }
      ],
      "stateMutability": "view",
      "type": "function",
      "constant": true
    },
    {
      "inputs": [],
      "name": "stopped",
      "outputs": [
        {
          "internalType": "bool",
          "name": "",
          "type": "bool"
        }
      ],
      "stateMutability": "view",
      "type": "function",
      "constant": true
    },
    {
      "inputs": [
        {
          "internalType": "string",
          "name": "",
          "type": "string"
        }
      ],
      "name": "userAddressFromUsername",
      "outputs": [
        {
          "internalType": "address",
          "name": "",
          "type": "address"
        }
      ],
      "stateMutability": "view",
      "type": "function",
      "constant": true
    },
    {
      "inputs": [
        {
          "internalType": "address",
          "name": "",
          "type": "address"
        }
      ],
      "name": "users",
      "outputs": [
        {
          "internalType": "uint256",
          "name": "id",
          "type": "uint256"
        },
        {
          "internalType": "address",
          "name": "ethAdress",
          "type": "address"
        },
        {
          "internalType": "string",
          "name": "name",
          "type": "string"
        },
        {
          "internalType": "string",
          "name": "username",
          "type": "string"
        },
        {
          "internalType": "string",
          "name": "email",
          "type": "string"
        },
        {
          "internalType": "string",
          "name": "password",
          "type": "string"
        },
        {
          "internalType": "string",
          "name": "profileImgHash",
          "type": "string"
        },
        {
          "internalType": "enum Register.accountStatus",
          "name": "status",
          "type": "uint8"
        }
      ],
      "stateMutability": "view",
      "type": "function",
      "constant": true
    },
    {
      "inputs": [
        {
          "internalType": "address",
          "name": "_user",
          "type": "address"
        }
      ],
      "name": "addMaintainer",
      "outputs": [],
      "stateMutability": "nonpayable",
      "type": "function"
    },
    {
      "inputs": [
        {
          "internalType": "string",
          "name": "_name",
          "type": "string"
        },
        {
          "internalType": "string",
          "name": "_username",
          "type": "string"
        },
        {
          "internalType": "string",
          "name": "_email",
          "type": "string"
        },
        {
          "internalType": "string",
          "name": "_password",
          "type": "string"
        },
        {
          "internalType": "string",
          "name": "_imgHash",
          "type": "string"
        }
      ],
      "name": "registerUser",
      "outputs": [],
      "stateMutability": "nonpayable",
      "type": "function"
    },
    {
      "inputs": [
        {
          "internalType": "string",
          "name": "_username",
          "type": "string"
        }
      ],
      "name": "showusername",
      "outputs": [
        {
          "internalType": "address",
          "name": "",
          "type": "address"
        },
        {
          "internalType": "uint256",
          "name": "",
          "type": "uint256"
        }
      ],
      "stateMutability": "view",
      "type": "function",
      "constant": true
    },
    {
      "inputs": [
        {
          "internalType": "string",
          "name": "_username",
          "type": "string"
        }
      ],
      "name": "usernameAvailable",
      "outputs": [
        {
          "internalType": "bool",
          "name": "status",
          "type": "bool"
        }
      ],
      "stateMutability": "view",
      "type": "function",
      "constant": true
    },
    {
      "inputs": [],
      "name": "userStatus",
      "outputs": [
        {
          "internalType": "enum Register.accountStatus",
          "name": "status",
          "type": "uint8"
        }
      ],
      "stateMutability": "view",
      "type": "function",
      "constant": true
    },
    {
      "inputs": [
        {
          "internalType": "address",
          "name": "_user",
          "type": "address"
        }
      ],
      "name": "getUser",
      "outputs": [
        {
          "internalType": "uint256",
          "name": "",
          "type": "uint256"
        },
        {
          "internalType": "string",
          "name": "",
          "type": "string"
        },
        {
          "internalType": "string",
          "name": "",
          "type": "string"
        },
        {
          "internalType": "string",
          "name": "",
          "type": "string"
        },
        {
          "internalType": "string",
          "name": "",
          "type": "string"
        },
        {
          "internalType": "string",
          "name": "",
          "type": "string"
        }
      ],
      "stateMutability": "view",
      "type": "function",
      "constant": true
    }
  ],
  "bytecode": "0x608060405260008060146101000a81548160ff0219169083151502179055506040518060400160405280600581526020017f6d79636174000000000000000000000000000000000000000000000000000000815250600190805190602001906200006b9291906200026d565b503480156200007957600080fd5b50336000806101000a81548173ffffffffffffffffffffffffffffffffffffffff021916908373ffffffffffffffffffffffffffffffffffffffff160217905550620000d433620000da640100000000026401000000009004565b620003f7565b60008054906101000a900473ffffffffffffffffffffffffffffffffffffffff1673ffffffffffffffffffffffffffffffffffffffff163373ffffffffffffffffffffffffffffffffffffffff16146200016b576040517f08c379a000000000000000000000000000000000000000000000000000000000815260040162000162906200035f565b60405180910390fd5b6001600660008373ffffffffffffffffffffffffffffffffffffffff1673ffffffffffffffffffffffffffffffffffffffff16815260200190815260200160002060006101000a81548160ff021916908315150217905550620001e3600362000249640100000000026200114c176401000000009004565b6200020360036200025f6401000000000262001162176401000000009004565b600760003373ffffffffffffffffffffffffffffffffffffffff1673ffffffffffffffffffffffffffffffffffffffff1681526020019081526020016000208190555050565b6001816000016000828254019250508190555050565b600081600001549050919050565b8280546200027b9062000392565b90600052602060002090601f0160209004810192826200029f5760008555620002eb565b82601f10620002ba57805160ff1916838001178555620002eb565b82800160010185558215620002eb579182015b82811115620002ea578251825591602001919060010190620002cd565b5b509050620002fa9190620002fe565b5090565b5b8082111562000319576000816000905550600101620002ff565b5090565b60006200032c60128362000381565b91507f596f7520617265206e6f74206f776e65722100000000000000000000000000006000830152602082019050919050565b600060208201905081810360008301526200037a816200031d565b9050919050565b600082825260208201905092915050565b60006002820490506001821680620003ab57607f821691505b60208210811415620003c257620003c1620003c8565b5b50919050565b7f4e487b7100000000000000000000000000000000000000000000000000000000600052602260045260246000fd5b61196b80620004076000396000f3fe608060405234801561001057600080fd5b50600436106100ec576000357c01000000000000000000000000000000000000000000000000000000009004806374ebaadc116100a9578063939327a111610083578063939327a11461024b578063a87430ba14610269578063ac9f0a40146102a0578063dd57366a146102bc576100ec565b806374ebaadc146101df57806375f12b211461020f5780638da5cb5b1461022d576100ec565b806306fdde03146100f1578063178d0d121461010f5780634810cef7146101405780636b453c1f146101705780636f77926b1461018c57806373c21b63146101c1575b600080fd5b6100f96102ec565b604051610106919061158a565b60405180910390f35b610129600480360381019061012491906112b9565b61037a565b60405161013792919061152b565b60405180910390f35b61015a600480360381019061015591906112b9565b6103cf565b60405161016791906114f5565b60405180910390f35b61018a60048036038101906101859190611290565b610418565b005b6101a660048036038101906101a19190611290565b610558565b6040516101b89695949392919061166d565b60405180910390f35b6101c96109c0565b6040516101d6919061158a565b60405180910390f35b6101f960048036038101906101f491906112b9565b610a4e565b6040516102069190611554565b60405180910390f35b610217610a84565b6040516102249190611554565b60405180910390f35b610235610a97565b6040516102429190611510565b60405180910390f35b610253610abb565b604051610260919061156f565b60405180910390f35b610283600480360381019061027e9190611290565b610b12565b6040516102979897969594939291906115cc565b60405180910390f35b6102ba60048036038101906102b591906112fa565b610e2f565b005b6102d660048036038101906102d19190611290565b61112c565b6040516102e39190611554565b60405180910390f35b600280546102f99061183a565b80601f01602080910402602001604051908101604052809291908181526020018280546103259061183a565b80156103725780601f1061034757610100808354040283529160200191610372565b820191906000526020600020905b81548152906001019060200180831161035557829003601f168201915b505050505081565b60008060088360405161038d91906114de565b908152602001604051809103902060009054906101000a900473ffffffffffffffffffffffffffffffffffffffff166103c66004611162565b91509150915091565b6008818051602081018201805184825260208301602085012081835280955050505050506000915054906101000a900473ffffffffffffffffffffffffffffffffffffffff1681565b60008054906101000a900473ffffffffffffffffffffffffffffffffffffffff1673ffffffffffffffffffffffffffffffffffffffff163373ffffffffffffffffffffffffffffffffffffffff16146104a6576040517f08c379a000000000000000000000000000000000000000000000000000000000815260040161049d906115ac565b60405180910390fd5b6001600660008373ffffffffffffffffffffffffffffffffffffffff1673ffffffffffffffffffffffffffffffffffffffff16815260200190815260200160002060006101000a81548160ff021916908315150217905550610508600361114c565b6105126003611162565b600760003373ffffffffffffffffffffffffffffffffffffffff1673ffffffffffffffffffffffffffffffffffffffff1681526020019081526020016000208190555050565b60006060806060806060600560008873ffffffffffffffffffffffffffffffffffffffff1673ffffffffffffffffffffffffffffffffffffffff16815260200190815260200160002060000154600560008973ffffffffffffffffffffffffffffffffffffffff1673ffffffffffffffffffffffffffffffffffffffff168152602001908152602001600020600301600560008a73ffffffffffffffffffffffffffffffffffffffff1673ffffffffffffffffffffffffffffffffffffffff168152602001908152602001600020600201600560008b73ffffffffffffffffffffffffffffffffffffffff1673ffffffffffffffffffffffffffffffffffffffff168152602001908152602001600020600401600560008c73ffffffffffffffffffffffffffffffffffffffff1673ffffffffffffffffffffffffffffffffffffffff168152602001908152602001600020600501600560008d73ffffffffffffffffffffffffffffffffffffffff1673ffffffffffffffffffffffffffffffffffffffff1681526020019081526020016000206006018480546106fb9061183a565b80601f01602080910402602001604051908101604052809291908181526020018280546107279061183a565b80156107745780601f1061074957610100808354040283529160200191610774565b820191906000526020600020905b81548152906001019060200180831161075757829003601f168201915b505050505094508380546107879061183a565b80601f01602080910402602001604051908101604052809291908181526020018280546107b39061183a565b80156108005780601f106107d557610100808354040283529160200191610800565b820191906000526020600020905b8154815290600101906020018083116107e357829003601f168201915b505050505093508280546108139061183a565b80601f016020809104026020016040519081016040528092919081815260200182805461083f9061183a565b801561088c5780601f106108615761010080835404028352916020019161088c565b820191906000526020600020905b81548152906001019060200180831161086f57829003601f168201915b5050505050925081805461089f9061183a565b80601f01602080910402602001604051908101604052809291908181526020018280546108cb9061183a565b80156109185780601f106108ed57610100808354040283529160200191610918565b820191906000526020600020905b8154815290600101906020018083116108fb57829003601f168201915b5050505050915080805461092b9061183a565b80601f01602080910402602001604051908101604052809291908181526020018280546109579061183a565b80156109a45780601f10610979576101008083540402835291602001916109a4565b820191906000526020600020905b81548152906001019060200180831161098757829003601f168201915b5050505050905095509550955095509550955091939550919395565b600180546109cd9061183a565b80601f01602080910402602001604051908101604052809291908181526020018280546109f99061183a565b8015610a465780601f10610a1b57610100808354040283529160200191610a46565b820191906000526020600020905b815481529060010190602001808311610a2957829003601f168201915b505050505081565b6000600982604051610a6091906114de565b908152602001604051809103902060009054906101000a900460ff16159050919050565b600060149054906101000a900460ff1681565b60008054906101000a900473ffffffffffffffffffffffffffffffffffffffff1681565b6000600560003373ffffffffffffffffffffffffffffffffffffffff1673ffffffffffffffffffffffffffffffffffffffff16815260200190815260200160002060070160009054906101000a900460ff16905090565b60056020528060005260406000206000915090508060000154908060010160009054906101000a900473ffffffffffffffffffffffffffffffffffffffff1690806002018054610b619061183a565b80601f0160208091040260200160405190810160405280929190818152602001828054610b8d9061183a565b8015610bda5780601f10610baf57610100808354040283529160200191610bda565b820191906000526020600020905b815481529060010190602001808311610bbd57829003601f168201915b505050505090806003018054610bef9061183a565b80601f0160208091040260200160405190810160405280929190818152602001828054610c1b9061183a565b8015610c685780601f10610c3d57610100808354040283529160200191610c68565b820191906000526020600020905b815481529060010190602001808311610c4b57829003601f168201915b505050505090806004018054610c7d9061183a565b80601f0160208091040260200160405190810160405280929190818152602001828054610ca99061183a565b8015610cf65780601f10610ccb57610100808354040283529160200191610cf6565b820191906000526020600020905b815481529060010190602001808311610cd957829003601f168201915b505050505090806005018054610d0b9061183a565b80601f0160208091040260200160405190810160405280929190818152602001828054610d379061183a565b8015610d845780601f10610d5957610100808354040283529160200191610d84565b820191906000526020600020905b815481529060010190602001808311610d6757829003601f168201915b505050505090806006018054610d999061183a565b80601f0160208091040260200160405190810160405280929190818152602001828054610dc59061183a565b8015610e125780601f10610de757610100808354040283529160200191610e12565b820191906000526020600020905b815481529060010190602001808311610df557829003601f168201915b5050505050908060070160009054906101000a900460ff16905088565b6001600985604051610e4191906114de565b908152602001604051809103902060006101000a81548160ff021916908315150217905550610e70600461114c565b6000610e7c6004611162565b90506040518061010001604052808281526020013373ffffffffffffffffffffffffffffffffffffffff16815260200187815260200186815260200185815260200184815260200183815260200160016003811115610f04577f4e487b7100000000000000000000000000000000000000000000000000000000600052602160045260246000fd5b815250600560003373ffffffffffffffffffffffffffffffffffffffff1673ffffffffffffffffffffffffffffffffffffffff1681526020019081526020016000206000820151816000015560208201518160010160006101000a81548173ffffffffffffffffffffffffffffffffffffffff021916908373ffffffffffffffffffffffffffffffffffffffff1602179055506040820151816002019080519060200190610fb3929190611170565b506060820151816003019080519060200190610fd0929190611170565b506080820151816004019080519060200190610fed929190611170565b5060a082015181600501908051906020019061100a929190611170565b5060c0820151816006019080519060200190611027929190611170565b5060e08201518160070160006101000a81548160ff02191690836003811115611079577f4e487b7100000000000000000000000000000000000000000000000000000000600052602160045260246000fd5b02179055509050503360088660405161109291906114de565b908152602001604051809103902060006101000a81548173ffffffffffffffffffffffffffffffffffffffff021916908373ffffffffffffffffffffffffffffffffffffffff1602179055507f8ccfbb34e26d31a9e35d0df32f780165b5f8c000202a2a90fa162cedf8ec1aba81338888888888600160405161111c9897969594939291906115cc565b60405180910390a1505050505050565b60066020528060005260406000206000915054906101000a900460ff1681565b6001816000016000828254019250508190555050565b600081600001549050919050565b82805461117c9061183a565b90600052602060002090601f01602090048101928261119e57600085556111e5565b82601f106111b757805160ff19168380011785556111e5565b828001600101855582156111e5579182015b828111156111e45782518255916020019190600101906111c9565b5b5090506111f291906111f6565b5090565b5b8082111561120f5760008160009055506001016111f7565b5090565b600061122661122184611722565b6116f1565b90508281526020810184848401111561123e57600080fd5b6112498482856117f8565b509392505050565b6000813590506112608161191e565b92915050565b600082601f83011261127757600080fd5b8135611287848260208601611213565b91505092915050565b6000602082840312156112a257600080fd5b60006112b084828501611251565b91505092915050565b6000602082840312156112cb57600080fd5b600082013567ffffffffffffffff8111156112e557600080fd5b6112f184828501611266565b91505092915050565b600080600080600060a0868803121561131257600080fd5b600086013567ffffffffffffffff81111561132c57600080fd5b61133888828901611266565b955050602086013567ffffffffffffffff81111561135557600080fd5b61136188828901611266565b945050604086013567ffffffffffffffff81111561137e57600080fd5b61138a88828901611266565b935050606086013567ffffffffffffffff8111156113a757600080fd5b6113b388828901611266565b925050608086013567ffffffffffffffff8111156113d057600080fd5b6113dc88828901611266565b9150509295509295909350565b6113f28161178b565b82525050565b61140181611779565b82525050565b6114108161179d565b82525050565b61141f816117e6565b82525050565b600061143082611752565b61143a818561175d565b935061144a818560208601611807565b611453816118f9565b840191505092915050565b600061146982611752565b611473818561176e565b9350611483818560208601611807565b80840191505092915050565b600061149c60128361175d565b91507f596f7520617265206e6f74206f776e65722100000000000000000000000000006000830152602082019050919050565b6114d8816117dc565b82525050565b60006114ea828461145e565b915081905092915050565b600060208201905061150a60008301846113f8565b92915050565b600060208201905061152560008301846113e9565b92915050565b600060408201905061154060008301856113f8565b61154d60208301846114cf565b9392505050565b60006020820190506115696000830184611407565b92915050565b60006020820190506115846000830184611416565b92915050565b600060208201905081810360008301526115a48184611425565b905092915050565b600060208201905081810360008301526115c58161148f565b9050919050565b6000610100820190506115e2600083018b6114cf565b6115ef602083018a6113f8565b81810360408301526116018189611425565b905081810360608301526116158188611425565b905081810360808301526116298187611425565b905081810360a083015261163d8186611425565b905081810360c08301526116518185611425565b905061166060e0830184611416565b9998505050505050505050565b600060c08201905061168260008301896114cf565b81810360208301526116948188611425565b905081810360408301526116a88187611425565b905081810360608301526116bc8186611425565b905081810360808301526116d08185611425565b905081810360a08301526116e48184611425565b9050979650505050505050565b6000604051905081810181811067ffffffffffffffff82111715611718576117176118ca565b5b8060405250919050565b600067ffffffffffffffff82111561173d5761173c6118ca565b5b601f19601f8301169050602081019050919050565b600081519050919050565b600082825260208201905092915050565b600081905092915050565b6000611784826117bc565b9050919050565b6000611796826117bc565b9050919050565b60008115159050919050565b60008190506117b78261190a565b919050565b600073ffffffffffffffffffffffffffffffffffffffff82169050919050565b6000819050919050565b60006117f1826117a9565b9050919050565b82818337600083830152505050565b60005b8381101561182557808201518184015260208101905061180a565b83811115611834576000848401525b50505050565b6000600282049050600182168061185257607f821691505b602082108114156118665761186561189b565b5b50919050565b7f4e487b7100000000000000000000000000000000000000000000000000000000600052602160045260246000fd5b7f4e487b7100000000000000000000000000000000000000000000000000000000600052602260045260246000fd5b7f4e487b7100000000000000000000000000000000000000000000000000000000600052604160045260246000fd5b6000601f19601f8301169050919050565b6004811061191b5761191a61186c565b5b50565b61192781611779565b811461193257600080fd5b5056fea264697066735822122085df4f9293e8727a21e3413e1eb1dbceb973ab6a91a2409fee9556fd16e3d6ba64736f6c63430008000033",
  "immutableReferences": {},
  "source": "// pragma solidity >=0.4.22 <0.8.0;\n// import \"./ERC721.sol\";\npragma solidity ^0.8.0;\nimport \"@openzeppelin/contracts/utils/Counters.sol\";\ncontract Register {\n    using Counters for Counters.Counter;\n    address payable public owner; //Owner is also a maintainer\n    bool public stopped=false;\n    string public petcat=\"mycat\";    \n    string public name;\n    \n    Counters.Counter private totalMaintainers;\n    Counters.Counter private totalUsers;\n    mapping(address=> User) public users; //mapping to get user details from user address\n    mapping(address=>bool) public isMaintainer; //to \n    mapping(address=>uint) private maintainerId;\n    mapping(string=>address) public userAddressFromUsername; // to get user address from username\n    mapping(string=>bool) private usernames;//to check which username is taken taken=>true, not taken=>false\n\n    modifier onlyOwner{require(msg.sender==owner,\"You are not owner!\");_;}\n\n    modifier stopInEmergency{require(!stopped,\"Dapp has been stopped!\");_;}\n    modifier onlyInEmergency{require(stopped);_;}\n    modifier usernameTaken(string memory username){require(!usernames[username],\"Username already taken\");_;}\n    modifier checkUserNotExists(address user){require(users[user].status==accountStatus.NP,\"User already registered\");_;}\n\n    event logRegisterUser(uint id, address ethAdress, string name, string username, string email, string password, string profileImgHash, accountStatus status);\n    struct User{\n        uint id;\n        address ethAdress;\n        string name;\n        string username;\n        string email;\n        string password;\n        string profileImgHash;\n        accountStatus status; //Account Banned or Not\n    }\n    ///@dev NP means not present the default value for status\n    enum accountStatus{NP, Active, Banned, Deactivated}\n    constructor() public{\n        owner=payable(msg.sender);\n        addMaintainer(msg.sender);\n    }\n    function addMaintainer (address _user) public onlyOwner{\n        isMaintainer[_user]=true;\n        totalMaintainers.increment();\n        maintainerId[msg.sender]=totalMaintainers.current();\n    }\n    function registerUser( string memory _name,string memory _username, string memory _email, string memory _password, string memory _imgHash) public {\n        usernames[_username]=true; //attack prevented\n        totalUsers.increment();\n        uint id=totalUsers.current();\n        users[msg.sender]=User(id, msg.sender, _name,  _username,_email, _password, _imgHash, accountStatus.Active);\n        userAddressFromUsername[_username]=msg.sender;\n        emit logRegisterUser(id, msg.sender, _name,  _username,_email, _password, _imgHash, accountStatus.Active);\n    }\n\n    function showusername(string memory _username) public view returns(address,uint){\n        return (userAddressFromUsername[_username],totalUsers.current());\n    }\n    function usernameAvailable(string memory _username) public view returns(bool status){\n        return !usernames[_username];\n    }\n    function userStatus() public view returns(accountStatus status){\n        return users[msg.sender].status;\n    }\n    function getUser(address _user) public view returns(uint , string memory , string memory , string memory , string memory , string memory ){\n        return(users[_user].id, users[_user].username, users[_user].name, users[_user].email, users[_user].password, users[_user].profileImgHash);\n    }\n    \n}",
  "sourcePath": "E:\\Workspace\\viavix\\viavix\\client\\contracts\\Register.sol",
  "compiler": {
    "name": "solc",
    "version": "0.8.0+commit.c7dfd78e.Emscripten.clang"
  },
  "schemaVersion": "3.4.3",
  "updatedAt": "2021-10-25T18:18:15.555Z",
  "networkType": "ethereum",
  "devdoc": {
    "kind": "dev",
    "methods": {},
    "version": 1
  },
  "userdoc": {
    "kind": "user",
    "methods": {},
    "version": 1
  }
}