{
  "contractName": "VcoinSale",
  "abi": [
    {
      "inputs": [
        {
          "internalType": "address",
          "name": "tokenAddress",
          "type": "address"
        }
      ],
      "stateMutability": "nonpayable",
      "type": "constructor"
    },
    {
      "anonymous": false,
      "inputs": [
        {
          "indexed": false,
          "internalType": "address",
          "name": "buyer",
          "type": "address"
        },
        {
          "indexed": false,
          "internalType": "uint256",
          "name": "amountOfETH",
          "type": "uint256"
        },
        {
          "indexed": false,
          "internalType": "uint256",
          "name": "amountOfTokens",
          "type": "uint256"
        }
      ],
      "name": "BuyTokens",
      "type": "event"
    },
    {
      "anonymous": false,
      "inputs": [
        {
          "indexed": true,
          "internalType": "address",
          "name": "previousOwner",
          "type": "address"
        },
        {
          "indexed": true,
          "internalType": "address",
          "name": "newOwner",
          "type": "address"
        }
      ],
      "name": "OwnershipTransferred",
      "type": "event"
    },
    {
      "anonymous": false,
      "inputs": [
        {
          "indexed": false,
          "internalType": "address",
          "name": "seller",
          "type": "address"
        },
        {
          "indexed": false,
          "internalType": "uint256",
          "name": "amountOfTokens",
          "type": "uint256"
        },
        {
          "indexed": false,
          "internalType": "uint256",
          "name": "amountOfETH",
          "type": "uint256"
        }
      ],
      "name": "SellTokens",
      "type": "event"
    },
    {
      "inputs": [],
      "name": "owner",
      "outputs": [
        {
          "internalType": "address",
          "name": "",
          "type": "address"
        }
      ],
      "stateMutability": "view",
      "type": "function",
      "constant": true
    },
    {
      "inputs": [],
      "name": "renounceOwnership",
      "outputs": [],
      "stateMutability": "nonpayable",
      "type": "function"
    },
    {
      "inputs": [],
      "name": "tokensPerEth",
      "outputs": [
        {
          "internalType": "uint256",
          "name": "",
          "type": "uint256"
        }
      ],
      "stateMutability": "view",
      "type": "function",
      "constant": true
    },
    {
      "inputs": [
        {
          "internalType": "address",
          "name": "newOwner",
          "type": "address"
        }
      ],
      "name": "transferOwnership",
      "outputs": [],
      "stateMutability": "nonpayable",
      "type": "function"
    },
    {
      "inputs": [],
      "name": "buyTokens",
      "outputs": [
        {
          "internalType": "uint256",
          "name": "tokenAmount",
          "type": "uint256"
        }
      ],
      "stateMutability": "payable",
      "type": "function",
      "payable": true
    },
    {
      "inputs": [
        {
          "internalType": "uint256",
          "name": "tokenAmountToSell",
          "type": "uint256"
        }
      ],
      "name": "sellTokens",
      "outputs": [],
      "stateMutability": "nonpayable",
      "type": "function"
    },
    {
      "inputs": [],
      "name": "withdraw",
      "outputs": [],
      "stateMutability": "nonpayable",
      "type": "function"
    }
  ],
  "bytecode": "0x608060405260646002553480156200001657600080fd5b506040516200178d3803806200178d83398181016040528101906200003c919062000199565b6200006e62000059620000b6640100000000026401000000009004565b620000be640100000000026401000000009004565b80600160006101000a81548173ffffffffffffffffffffffffffffffffffffffff021916908373ffffffffffffffffffffffffffffffffffffffff1602179055505062000213565b600033905090565b60008060009054906101000a900473ffffffffffffffffffffffffffffffffffffffff169050816000806101000a81548173ffffffffffffffffffffffffffffffffffffffff021916908373ffffffffffffffffffffffffffffffffffffffff1602179055508173ffffffffffffffffffffffffffffffffffffffff168173ffffffffffffffffffffffffffffffffffffffff167f8be0079c531659141344cd1fd0a4f28419497f9722a3daafe3b4186f6b6457e060405160405180910390a35050565b6000815190506200019381620001f9565b92915050565b600060208284031215620001ac57600080fd5b6000620001bc8482850162000182565b91505092915050565b6000620001d282620001d9565b9050919050565b600073ffffffffffffffffffffffffffffffffffffffff82169050919050565b6200020481620001c5565b81146200021057600080fd5b50565b61156a80620002236000396000f3fe60806040526004361061008d576000357c0100000000000000000000000000000000000000000000000000000000900480638da5cb5b1161006b5780638da5cb5b146100e9578063cbdd69b514610114578063d0febe4c1461013f578063f2fde38b1461015d5761008d565b80633ccfd60b146100925780636c11bcd3146100a9578063715018a6146100d2575b600080fd5b34801561009e57600080fd5b506100a7610186565b005b3480156100b557600080fd5b506100d060048036038101906100cb9190610c86565b610328565b005b3480156100de57600080fd5b506100e76106ae565b005b3480156100f557600080fd5b506100fe610736565b60405161010b9190611155565b60405180910390f35b34801561012057600080fd5b5061012961075f565b6040516101369190611387565b60405180910390f35b610147610765565b6040516101549190611387565b60405180910390f35b34801561016957600080fd5b50610184600480360381019061017f9190610c34565b610a1c565b005b61018e610b14565b73ffffffffffffffffffffffffffffffffffffffff166101ac610736565b73ffffffffffffffffffffffffffffffffffffffff1614610202576040517f08c379a00000000000000000000000000000000000000000000000000000000081526004016101f9906112c7565b60405180910390fd5b60003073ffffffffffffffffffffffffffffffffffffffff1631905060008111610261576040517f08c379a000000000000000000000000000000000000000000000000000000000815260040161025890611307565b60405180910390fd5b60003373ffffffffffffffffffffffffffffffffffffffff163073ffffffffffffffffffffffffffffffffffffffff163160405161029e90611140565b60006040518083038185875af1925050503d80600081146102db576040519150601f19603f3d011682016040523d82523d6000602084013e6102e0565b606091505b5050905080610324576040517f08c379a000000000000000000000000000000000000000000000000000000000815260040161031b906112e7565b60405180910390fd5b5050565b6000811161036b576040517f08c379a0000000000000000000000000000000000000000000000000000000008152600401610362906112a7565b60405180910390fd5b6000600160009054906101000a900473ffffffffffffffffffffffffffffffffffffffff1673ffffffffffffffffffffffffffffffffffffffff166370a08231336040518263ffffffff167c01000000000000000000000000000000000000000000000000000000000281526004016103e49190611155565b60206040518083038186803b1580156103fc57600080fd5b505afa158015610410573d6000803e3d6000fd5b505050506040513d601f19601f820116820180604052508101906104349190610caf565b905081811015610479576040517f08c379a000000000000000000000000000000000000000000000000000000000815260040161047090611267565b60405180910390fd5b60006002548361048991906113be565b905060003073ffffffffffffffffffffffffffffffffffffffff16319050818110156104ea576040517f08c379a00000000000000000000000000000000000000000000000000000000081526004016104e190611327565b60405180910390fd5b6000600160009054906101000a900473ffffffffffffffffffffffffffffffffffffffff1673ffffffffffffffffffffffffffffffffffffffff166323b872dd3330886040518463ffffffff167c010000000000000000000000000000000000000000000000000000000002815260040161056793929190611170565b602060405180830381600087803b15801561058157600080fd5b505af1158015610595573d6000803e3d6000fd5b505050506040513d601f19601f820116820180604052508101906105b99190610c5d565b9050806105fb576040517f08c379a00000000000000000000000000000000000000000000000000000000081526004016105f290611207565b60405180910390fd5b3373ffffffffffffffffffffffffffffffffffffffff168360405161061f90611140565b60006040518083038185875af1925050503d806000811461065c576040519150601f19603f3d011682016040523d82523d6000602084013e610661565b606091505b505080915050806106a7576040517f08c379a000000000000000000000000000000000000000000000000000000000815260040161069e90611347565b60405180910390fd5b5050505050565b6106b6610b14565b73ffffffffffffffffffffffffffffffffffffffff166106d4610736565b73ffffffffffffffffffffffffffffffffffffffff161461072a576040517f08c379a0000000000000000000000000000000000000000000000000000000008152600401610721906112c7565b60405180910390fd5b6107346000610b1c565b565b60008060009054906101000a900473ffffffffffffffffffffffffffffffffffffffff16905090565b60025481565b60008034116107a9576040517f08c379a00000000000000000000000000000000000000000000000000000000081526004016107a090611247565b60405180910390fd5b6000600254346107b991906113ef565b90506000600160009054906101000a900473ffffffffffffffffffffffffffffffffffffffff1673ffffffffffffffffffffffffffffffffffffffff166370a08231306040518263ffffffff167c01000000000000000000000000000000000000000000000000000000000281526004016108349190611155565b60206040518083038186803b15801561084c57600080fd5b505afa158015610860573d6000803e3d6000fd5b505050506040513d601f19601f820116820180604052508101906108849190610caf565b9050818110156108c9576040517f08c379a00000000000000000000000000000000000000000000000000000000081526004016108c090611287565b60405180910390fd5b6000600160009054906101000a900473ffffffffffffffffffffffffffffffffffffffff1673ffffffffffffffffffffffffffffffffffffffff1663a9059cbb33856040518363ffffffff167c01000000000000000000000000000000000000000000000000000000000281526004016109449291906111a7565b602060405180830381600087803b15801561095e57600080fd5b505af1158015610972573d6000803e3d6000fd5b505050506040513d601f19601f820116820180604052508101906109969190610c5d565b9050806109d8576040517f08c379a00000000000000000000000000000000000000000000000000000000081526004016109cf90611367565b60405180910390fd5b7f0a37b72bb67eee30e09084cf386f8a17817c57f620c3ab95fb25d6a20356ec77333485604051610a0b939291906111d0565b60405180910390a182935050505090565b610a24610b14565b73ffffffffffffffffffffffffffffffffffffffff16610a42610736565b73ffffffffffffffffffffffffffffffffffffffff1614610a98576040517f08c379a0000000000000000000000000000000000000000000000000000000008152600401610a8f906112c7565b60405180910390fd5b600073ffffffffffffffffffffffffffffffffffffffff168173ffffffffffffffffffffffffffffffffffffffff161415610b08576040517f08c379a0000000000000000000000000000000000000000000000000000000008152600401610aff90611227565b60405180910390fd5b610b1181610b1c565b50565b600033905090565b60008060009054906101000a900473ffffffffffffffffffffffffffffffffffffffff169050816000806101000a81548173ffffffffffffffffffffffffffffffffffffffff021916908373ffffffffffffffffffffffffffffffffffffffff1602179055508173ffffffffffffffffffffffffffffffffffffffff168173ffffffffffffffffffffffffffffffffffffffff167f8be0079c531659141344cd1fd0a4f28419497f9722a3daafe3b4186f6b6457e060405160405180910390a35050565b600081359050610bef816114ef565b92915050565b600081519050610c0481611506565b92915050565b600081359050610c198161151d565b92915050565b600081519050610c2e8161151d565b92915050565b600060208284031215610c4657600080fd5b6000610c5484828501610be0565b91505092915050565b600060208284031215610c6f57600080fd5b6000610c7d84828501610bf5565b91505092915050565b600060208284031215610c9857600080fd5b6000610ca684828501610c0a565b91505092915050565b600060208284031215610cc157600080fd5b6000610ccf84828501610c1f565b91505092915050565b610ce181611449565b82525050565b6000610cf46030836113ad565b91507f4661696c656420746f207472616e7366657220746f6b656e732066726f6d207560008301527f73657220746f2056636f696e53616c65000000000000000000000000000000006020830152604082019050919050565b6000610d5a6026836113ad565b91507f4f776e61626c653a206e6577206f776e657220697320746865207a65726f206160008301527f64647265737300000000000000000000000000000000000000000000000000006020830152604082019050919050565b6000610dc0601b836113ad565b91507f53656e642045544820746f2062757920736f6d6520746f6b656e7300000000006000830152602082019050919050565b6000610e006040836113ad565b91507f596f75722062616c616e6365206973206c6f776572207468616e20746865206160008301527f6d6f756e74206f6620746f6b656e7320796f752077616e7420746f2073656c6c6020830152604082019050919050565b6000610e666037836113ad565b91507f56636f696e53616c6520636f6e747261637420686173206e6f7420656e6f756760008301527f6820746f6b656e7320696e206974732062616c616e63650000000000000000006020830152604082019050919050565b6000610ecc602c836113ad565b91507f5370656369667920616e20616d6f756e74206f6620746f6b656e20677265617460008301527f6572207468616e207a65726f00000000000000000000000000000000000000006020830152604082019050919050565b6000610f326020836113ad565b91507f4f776e61626c653a2063616c6c6572206973206e6f7420746865206f776e65726000830152602082019050919050565b6000610f72602d836113ad565b91507f4661696c656420746f2073656e6420757365722062616c616e6365206261636b60008301527f20746f20746865206f776e6572000000000000000000000000000000000000006020830152604082019050919050565b6000610fd86000836113a2565b9150600082019050919050565b6000610ff26021836113ad565b91507f4f776e657220686173206e6f742062616c616e636520746f207769746864726160008301527f77000000000000000000000000000000000000000000000000000000000000006020830152604082019050919050565b60006110586039836113ad565b91507f56636f696e53616c6520686173206e6f7420656e6f7567682066756e6473207460008301527f6f20616363657074207468652073656c6c2072657175657374000000000000006020830152604082019050919050565b60006110be601e836113ad565b91507f4661696c656420746f2073656e642045544820746f20746865207573657200006000830152602082019050919050565b60006110fe6020836113ad565b91507f4661696c656420746f207472616e7366657220746f6b656e20746f20757365726000830152602082019050919050565b61113a81611487565b82525050565b600061114b82610fcb565b9150819050919050565b600060208201905061116a6000830184610cd8565b92915050565b60006060820190506111856000830186610cd8565b6111926020830185610cd8565b61119f6040830184611131565b949350505050565b60006040820190506111bc6000830185610cd8565b6111c96020830184611131565b9392505050565b60006060820190506111e56000830186610cd8565b6111f26020830185611131565b6111ff6040830184611131565b949350505050565b6000602082019050818103600083015261122081610ce7565b9050919050565b6000602082019050818103600083015261124081610d4d565b9050919050565b6000602082019050818103600083015261126081610db3565b9050919050565b6000602082019050818103600083015261128081610df3565b9050919050565b600060208201905081810360008301526112a081610e59565b9050919050565b600060208201905081810360008301526112c081610ebf565b9050919050565b600060208201905081810360008301526112e081610f25565b9050919050565b6000602082019050818103600083015261130081610f65565b9050919050565b6000602082019050818103600083015261132081610fe5565b9050919050565b600060208201905081810360008301526113408161104b565b9050919050565b60006020820190508181036000830152611360816110b1565b9050919050565b60006020820190508181036000830152611380816110f1565b9050919050565b600060208201905061139c6000830184611131565b92915050565b600081905092915050565b600082825260208201905092915050565b60006113c982611487565b91506113d483611487565b9250826113e4576113e36114c0565b5b828204905092915050565b60006113fa82611487565b915061140583611487565b9250817fffffffffffffffffffffffffffffffffffffffffffffffffffffffffffffffff048311821515161561143e5761143d611491565b5b828202905092915050565b600061145482611467565b9050919050565b60008115159050919050565b600073ffffffffffffffffffffffffffffffffffffffff82169050919050565b6000819050919050565b7f4e487b7100000000000000000000000000000000000000000000000000000000600052601160045260246000fd5b7f4e487b7100000000000000000000000000000000000000000000000000000000600052601260045260246000fd5b6114f881611449565b811461150357600080fd5b50565b61150f8161145b565b811461151a57600080fd5b50565b61152681611487565b811461153157600080fd5b5056fea26469706673582212208abfd1d55fd54db2b361b97b912249daa7e00ab32a588ac877f7b31a03fde53164736f6c63430008000033",
  "immutableReferences": {},
  "source": "pragma solidity ^0.8.0;\r\n\r\nimport \"./Vcoin.sol\";\r\nimport \"@openzeppelin/contracts/access/Ownable.sol\";\r\ncontract VcoinSale is Ownable{\r\n  \r\n  // Our Token Contract\r\n  Vcoin VToken;\r\n\r\n  // token price for ETH\r\n  uint256 public tokensPerEth = 100;\r\n\r\n  // Event that log buy operation\r\n  event BuyTokens(address buyer, uint256 amountOfETH, uint256 amountOfTokens);\r\n  event SellTokens(address seller, uint256 amountOfTokens, uint256 amountOfETH);\r\n\r\n  constructor(address tokenAddress) {\r\n    VToken = Vcoin(tokenAddress);\r\n  }\r\n\r\n  /**\r\n  * @notice Allow users to buy tokens for ETH\r\n  */\r\n  function buyTokens() public payable returns (uint256 tokenAmount) {\r\n    require(msg.value > 0, \"Send ETH to buy some tokens\");\r\n\r\n    uint256 amountToBuy = msg.value * tokensPerEth;\r\n\r\n    // check if the VcoinSale Contract has enough amount of tokens for the transaction\r\n    uint256 VcoinSaleBalance = VToken.balanceOf(address(this));\r\n    require(VcoinSaleBalance >= amountToBuy, \"VcoinSale contract has not enough tokens in its balance\");\r\n\r\n    // Transfer token to the msg.sender\r\n    (bool sent) = VToken.transfer(msg.sender, amountToBuy);\r\n    require(sent, \"Failed to transfer token to user\");\r\n\r\n    // emit the event\r\n    emit BuyTokens(msg.sender, msg.value, amountToBuy);\r\n\r\n    return amountToBuy;\r\n  }\r\n\r\n  /**\r\n  * @notice Allow users to sell tokens for ETH\r\n  */\r\n  function sellTokens(uint256 tokenAmountToSell) public {\r\n    // Check that the requested amount of tokens to sell is more than 0\r\n    require(tokenAmountToSell > 0, \"Specify an amount of token greater than zero\");\r\n\r\n    // Check that the user's token balance is enough to do the swap\r\n    uint256 userBalance = VToken.balanceOf(msg.sender);\r\n    require(userBalance >= tokenAmountToSell, \"Your balance is lower than the amount of tokens you want to sell\");\r\n\r\n    // Check that the VcoinSale's balance is enough to do the swap\r\n    uint256 amountOfETHToTransfer = tokenAmountToSell / tokensPerEth;\r\n    uint256 ownerETHBalance = address(this).balance;\r\n    require(ownerETHBalance >= amountOfETHToTransfer, \"VcoinSale has not enough funds to accept the sell request\");\r\n\r\n    (bool sent) = VToken.transferFrom(msg.sender, address(this), tokenAmountToSell);\r\n    require(sent, \"Failed to transfer tokens from user to VcoinSale\");\r\n\r\n\r\n    (sent,) = msg.sender.call{value: amountOfETHToTransfer}(\"\");\r\n    require(sent, \"Failed to send ETH to the user\");\r\n  }\r\n\r\n  /**\r\n  * @notice Allow the owner of the contract to withdraw ETH\r\n  */\r\n  function withdraw() public onlyOwner {\r\n    uint256 ownerBalance = address(this).balance;\r\n    require(ownerBalance > 0, \"Owner has not balance to withdraw\");\r\n\r\n    (bool sent,) = msg.sender.call{value: address(this).balance}(\"\");\r\n    require(sent, \"Failed to send user balance back to the owner\");\r\n  }\r\n\r\n}",
  "sourcePath": "E:\\Workspace\\viavix\\viavix\\client\\contracts\\VcoinSale.sol",
  "compiler": {
    "name": "solc",
    "version": "0.8.0+commit.c7dfd78e.Emscripten.clang"
  },
  "schemaVersion": "3.4.3",
  "updatedAt": "2021-10-25T18:20:25.926Z",
  "networkType": "ethereum",
  "devdoc": {
    "kind": "dev",
    "methods": {
      "owner()": {
        "details": "Returns the address of the current owner."
      },
      "renounceOwnership()": {
        "details": "Leaves the contract without owner. It will not be possible to call `onlyOwner` functions anymore. Can only be called by the current owner. NOTE: Renouncing ownership will leave the contract without an owner, thereby removing any functionality that is only available to the owner."
      },
      "transferOwnership(address)": {
        "details": "Transfers ownership of the contract to a new account (`newOwner`). Can only be called by the current owner."
      }
    },
    "version": 1
  },
  "userdoc": {
    "kind": "user",
    "methods": {
      "buyTokens()": {
        "notice": "Allow users to buy tokens for ETH"
      },
      "sellTokens(uint256)": {
        "notice": "Allow users to sell tokens for ETH"
      },
      "withdraw()": {
        "notice": "Allow the owner of the contract to withdraw ETH"
      }
    },
    "version": 1
  }
}